:100000000C9481010C94B2010C94B2010C94B201D5
:100010000C94B2010C94B2010C94B2010C94B20194
:100020000C94B2010C94B2010C94B2010C94B20184
:100030000C94B2010C94B2010C94B2010C94B20174
:100040000C94B2010C94B2010C94B2010C94B20164
:100050000C947F120C94B2010C94B2010C94D51143
:100060000C94B2010C9449120C941F120C94B2011E
:100070000C94B2010C94B2010C94B2010C94B20134
:100080000C94B2010C94B2010C94B2010C94B20124
:100090000C94B2010C94B2010C94B2010C94B20114
:1000A0000C94B2010C94B2010C94B2010C94B20104
:1000B0000C94B2010C94B2010C94B2010C94B201F4
:1000C0000C94B2010C94B2010C94B2010C94B201E4
:1000D0000C94B2010C94B2010C94B2010C94B201D4
:1000E0000C94B2010C947B150C9473030C94ED01E9
:1000F0000C94D5150C9495040C9442030C94BB15E8
:100100000C9415030C94F3150C94D2010C94090271
:100110000C9465030C944B040C9451030C949315AC
:100120000C94F1010C9480050C94DC010C94E70113
:100130000C9485150C94A5150C94AB030C947315B5
:100140000C94FF010C94DF040C94E0010C940D025C
:100150000C94D8010C9412020C9482040C94AA12F0
:100160000C94F8030C94F2040C94B1040C947515DF
:100170000C9405020C94AA060C94E4010C94FB0167
:100180000C9417020C9413020C94DE140C941516A4
:100190000C94F7010C9481050000803FCDCCCC3D40
:1001A0006F12833A95BFD6337D1D9026B3CE010CD6
:1001B00000002100240027002A002D003000330019
:1001C00001010000040107010A01000022002500CE
:1001D00028002B002E003100340002010000050130
:1001E00008010B01000020002300260029002C003C
:1001F0002F0032000001000003010601090105057E
:100200000505070508080808020202020A0A08088C
:1002100004040404010101010101010103030303BA
:1002200003030303040707070C0C0C0C0C0C0C0C49
:100230000202020206060606060606060B0B0B0B5A
:100240000B0B0B0B0102102020080810204010207F
:10025000408002010201080402010102040810208A
:100260004080804020100804020180040201804088
:1002700020100804020108040201010204081020F1
:100280004080010204081020408000000A0B02098F
:100290000C0D0E0807030401000000000000000020
:1002A000000000000000000000000000000000004E
:1002B000000000000000121110000000000000000B
:1002C000000000000000000000000000000000002E
:1002D000000020410000C84200401C4620BCBE4C2B
:1002E000CA1B0E5AAEC59D74CDCCCC3D0AD7233C5B
:1002F00017B7D13877CC2B329595E6241FB14F0A2A
:10030000AA1211241FBECFEFD1E2DEBFCDBF00E0A5
:100310000CBF13E0A0E0B2E0EAE2F3E300E00BBFC1
:1003200002C007900D92A633B107D9F72BE1A6E3DF
:10033000B3E001C01D92A137B207E1F711E0C1E8B7
:10034000D1E000E006C021970109802FFE010E9444
:100350007A18C038D10780E00807A9F70E944D132A
:100360000C9493190C9400008150823108F05AC00B
:10037000E82FF0E08827E054FE4F8F4F0C947A1856
:10038000E001E401D201D801DC011202E701ED0134
:10039000F101F701FB01FF010502090212020D0242
:1003A00013021702809180008F7780938000089558
:1003B000809180008F7DF9CF80918000877FF5CF7D
:1003C00084B58F7784BD089584B58F7DFBCF8091F0
:1003D000B0008F778093B00008958091B0008F7D3A
:1003E000F9CF809190008F7780939000089580914D
:1003F00090008F7DF9CF80919000877FF5CF80911D
:10040000A0008F778093A00008958091A0008F7D39
:10041000F9CF8091A000877FF5CF809120018F7761
:10042000809320010895809120018F7DF9CF8091E4
:100430002001877FF5CFCF93DF93282F30E0F9019C
:10044000E657FD4F8491F901EC5BFD4FD491F90122
:10045000E250FE4FC491CC23A1F081110E94B4015F
:10046000EC2FF0E0EE0FFF1FEC51FE4FA591B49181
:10047000EC91ED2381E090E009F480E0DF91CF91F1
:10048000089580E090E0FACF1F93CF93DF93282F59
:1004900030E0F901E657FD4F8491F901EC5BFD4F27
:1004A000D491F901E250FE4FC491CC23A9F0162F4C
:1004B00081110E94B401EC2FF0E0EE0FFF1FE65314
:1004C000FE4FA591B4918FB7F894EC91111108C02B
:1004D000D095DE23DC938FBFDF91CF911F910895DC
:1004E000DE2BF8CFCF93DF9390E0FC01EC5BFD4F68
:1004F000249182509E4FFC0184918823D1F090E09A
:10050000880F991FFC01E055FE4FA591B491FC01A5
:10051000E653FE4FC591D49161110EC09FB7F89478
:100520008C91E22FE0958E238C932881E223E8833F
:100530009FBFDF91CF9108958FB7F894EC91E22B94
:10054000EC938FBFF6CF90917B00986090937B00E7
:1005500086538770806480937C0080917A008064E9
:1005600080937A0080917A0086FDFCCF809178009C
:100570009091790008953FB7F8948091B91A9091BD
:10058000BA1AA091BB1AB091BC1A26B5A89B05C097
:100590002F3F19F00196A11DB11D3FBFBA2FA92F02
:1005A000982F8827BC01CD01620F711D811D911DFF
:1005B00042E0660F771F881F991F4A95D1F708956B
:1005C0008F929F92AF92BF92CF92DF92EF92FF9263
:1005D0000E94BB024B015C0184E6C82ED12CE12CA9
:1005E000F12C0E94BB02681979098A099B09683EAF
:1005F000734081059105A8F321E0C21AD108E108F2
:10060000F10888EE880E83E0981EA11CB11CC1146D
:10061000D104E104F10429F7FF90EF90DF90CF902F
:10062000BF90AF909F908F900895AF92BF92CF925E
:10063000DF92EF92FF920F931F93CF93DF936C01A2
:100640007B018B01040F151FEB015E01AE18BF0883
:10065000C017D10759F06991D601ED91FC91019035
:10066000F081E02DC6011995892B79F7C501DF913D
:10067000CF911F910F91FF90EF90DF90CF90BF909F
:10068000AF900895FC01538D448D252F30E0842FC9
:1006900090E0821B930B541710F0CF9608950197AA
:1006A0000895FC01918D828D981761F0A28DAE0F97
:1006B000BF2FB11D5D968C91928D9F5F9F73928F1E
:1006C00090E008958FEF9FEF0895FC01918D828D4A
:1006D000981731F0828DE80FF11D858D90E0089517
:1006E0008FEF9FEF0895FC01918D228D892F90E06F
:1006F000805C9F4F821B91098F73992708958DEB22
:100700009AE10E94730321E0892B09F420E0822FF3
:100710000895FC01A48DA80FB92FB11DA35ABF4F96
:100720002C91848D90E001968F739927848FA689F0
:10073000B7892C93A089B1898C91837080648C9344
:10074000938D848D981306C00288F389E02D8081F3
:100750008F7D80830895EF92FF920F931F93CF9325
:10076000DF93EC0181E0888F9B8D8C8D98131AC0EC
:10077000E889F989808185FF15C09FB7F894EE89D3
:10078000FF896083E889F989808183708064808330
:100790009FBF81E090E0DF91CF911F910F91FF907B
:1007A000EF900895F62E0B8D10E00F5F1F4F0F7323
:1007B0001127E02E8C8D8E110CC00FB607FCFACFDE
:1007C000E889F989808185FFF5CFCE010E948903F0
:1007D000F1CFEB8DEC0FFD2FF11DE35AFF4FF082AF
:1007E0009FB7F8940B8FEA89FB8980818062CFCF15
:1007F000CF93DF93EC01888D8823B9F0AA89BB8958
:10080000E889F9898C9185FD03C0808186FD0DC042
:100810000FB607FCF7CF8C9185FFF2CF808185FF63
:10082000EDCFCE010E948903E9CFDF91CF910895EA
:1008300081E08093B11A08950E947F03882319F004
:1008400081E08093B11A80E090E0892B49F080E04C
:1008500090E0892B29F00E94000081110E94000085
:1008600080E090E0892B49F080E090E0892B29F02E
:100870000E94000081110E94000080E090E0892B1E
:1008800049F080E090E0892B29F00E94000081115E
:100890000C94000008950895BF92CF92DF92EF92DA
:1008A000FF920F931F93CF93DF938C01B42E6C01B3
:1008B0008EE0C80ED11CD0E0C0E0E62EF12CB701CE
:1008C0000C2E02C0759567950A94E2F76170F601E7
:1008D00081916F010E9444022196CB1580F361E063
:1008E000F80185850E94440260E0F8018585DF916A
:1008F000CF911F910F91FF90EF90DF90CF90BF901D
:100900000C944402FC0186898F3F71F02185328569
:10091000662329F0232B31F461E00C94440221304A
:100920003105D1F360E0F9CF0895EF92FF921F9364
:10093000CF93DF93EC01162F7A0161E0812F0E94A3
:1009400072021E8BFA86E986E881F9810484F585B6
:10095000E02D60E0CE01DF91CF911F91FF90EF90ED
:1009600019940F931F93CF93DF93EC01162F042F4D
:1009700061E0413009F060E08B850E9444028C8583
:100980008F3F19F060E00E944402023079F08C81C0
:1009900048E084FD0CC0612F70E084E07595679598
:1009A0008A95E1F744E0CE010E944C0444E0612FB7
:1009B000CE01DF91CF911F910F910C944C04DC017B
:1009C000ED91FC910684F785E02D41E0199581E0D9
:1009D00090E00895DC01ED91FC910684F785E02D0F
:1009E00040E019940F931F93CF93DF93EC014230B3
:1009F00018F08C8188608C834F836887222329F0CC
:100A0000413019F48C8184608C830E94E0026C81F7
:100A100064FD5CC0E881F9810684F785E02D42E041
:100A200063E0CE0119958BE496E40197F1F7E88134
:100A3000F9810684F785E02D42E063E0CE01199547
:100A400003E512E0C8010197F1F7E881F981068416
:100A5000F785E02D42E063E0CE011995C8010197CA
:100A6000F1F7E881F9810684F785E02D42E062E044
:100A7000CE011995C8010197F1F76C816062CE0132
:100A80000E94EA048BEE90E00197F1F784E08D83F9
:100A90006CE0CE010E94EA0461E0CE010E94EA040B
:100AA0008BE39FE10197F1F782E08E8366E0CE0150
:100AB0000E94EA04E881F9810484F585E02D6FEF56
:100AC000CE01DF91CF911F910F9119946062CE01F9
:100AD0000E94EA048BE496E40197F1F76C8160626E
:100AE000CE010E94EA0403E512E0C8010197F1F784
:100AF0006C816062CE010E94EA04BCCF0895089523
:100B0000089590E080E008959C01FB01309761F02A
:100B1000948190789A609483C901330FAA0BBB0B20
:100B200080839183A283B3830895CF93DF93EC01F5
:100B300088819981DC01ED91FC910190F081E02D9B
:100B400019952A813B81820F931F9B838A83DF91B2
:100B5000CF910895CF93DF93EC0188819981DC01D7
:100B6000ED91FC910280F381E02D19952A813B8162
:100B7000820F931F9B838A83DF91CF9108958F9279
:100B80009F92AF92BF92CF92DF92EF92FF920F931C
:100B90001F93CF93DF93CDB7DEB766970FB6F89468
:100BA000DEBF0FBECDBF6C018E01095E1F4F780105
:100BB0008AE0882E912CA12CB12CCB01BA01A50181
:100BC00094010E943518942F852F605DF80162937F
:100BD0008F01A901692F782F411551056105710514
:100BE00061F7A7014E1B5F0BBF01C6010E94AA055A
:100BF00066960FB6F894DEBF0FBECDBFDF91CF91E2
:100C00001F910F91FF90EF90DF90CF90BF90AF902A
:100C10009F908F90089580339CF08A3324F08F3515
:100C200024F08B3724F481E0089581344CF08B3527
:100C3000D4F393ED980F81E09230B0F380E0089503
:100C40008B32B9F7F0CF0F931F93CF93DF93EC0163
:100C50008C85811140C009851A852FB7F894809141
:100C6000B51A9091B61AA091B71AB091B81A2FBFC1
:100C7000F80180879187A287B387D801ED91FC9115
:100C80000284F385E02DC801199597FF2AC02FB77C
:100C9000F8948091B51A9091B61AA091B71AB091B4
:100CA000B81A2FBFF8014085518562857385841B72
:100CB000950BA60BB70B448155816681778184170C
:100CC0009507A607B707C8F28FEF9FEF97FD80E063
:100CD0008B8781E08C878B85DF91CF911F910F915E
:100CE00008959927F3CF1F93CF93DF93EC01162F2D
:100CF0000E942306811306C01C8681E0DF91CF91FC
:100D00001F91089580E0FACFCF93DF93EC01CE01DD
:100D10000E9423068B303CF489304CF4882349F040
:100D200081E0888710C08D3011F08032C9F71C86B1
:100D3000EECF888581110AC081E090E0C15BDF4F72
:100D40009983888380E0DF91CF91089582E090E0DD
:100D5000F5CF08950F931F93CF93DF93C091AF1AF0
:100D6000D091B01AC83B0BE0D00708F040C08EE32A
:100D70000E94A302CC0FDD1FC15CDC4F99838883E6
:100D8000813293405CF12FB7F8948091B51A90911D
:100D9000B61AA091B71AB091B81A2FBF40913B0371
:100DA00050913C0360913D0370913E038C019D0185
:100DB000041B150B260B370BB901A8014093370311
:100DC000509338036093390370933A0380933B0345
:100DD00090933C03A0933D03B0933E038091AF1AE0
:100DE0009091B01A01969093B01A8093AF1ADF9148
:100DF000CF911F910F910895FC0124813581A901A4
:100E00004F5F5F4F868197814817590748F4828169
:100E1000938155834483FC01E20FF31F608308959F
:100E20000190F081E02D81E0808708959F92AF923C
:100E3000BF92CF92DF92EF92FF920F931F93CF93C7
:100E4000DF9300D01F921F92CDB7DEB78C010E94B6
:100E50002306D82ED8011C961C92F12CE12C60EFB1
:100E6000C62EC8010E942306F8011486D81609F47C
:100E7000BDC0811119C0F801E15BFF4F82E090E035
:100E80009183808380E00F900F900F900F900F90D0
:100E9000DF91CF911F910F91FF90EF90DF90CF9056
:100EA000BF90AF909F9008958C3509F09DC0C80108
:100EB0000E9423068823F9F2E8E3F2E0853709F07F
:100EC00087C0D8011C961C9254E0952EB12CA12C01
:100ED000C8010E942306882371F281344CF48053A8
:100EE000803148F0F801E15BFF4F83E090E0C8CF2C
:100EF0008F7D8753F5CF44E0AA0CBB1C4A95E1F7E0
:100F0000A82AF80114869A949110E2CFC501985D41
:100F10008115944020F4750123E0F222A2CFC5018F
:100F20009C5D81159440A8F4B3E0BB22B701762FF5
:100F30006627770F770F6A297B2990E080E001967A
:100F4000603871058105910540F4C8010E94FC06D6
:100F500088CFB50190E080E0F3CF1982262F2F7360
:100F600020682A8326E096958795779567952A9538
:100F7000D1F76032710580F4606C6B835E01E4E050
:100F8000AE0EB11CD5016E915D01662309F469CFE7
:100F9000C8010E94FC06F6CF262F2F7320682B83F2
:100FA00086E0769567958A95E1F76031710538F4AA
:100FB000606E6C835E01F5E0AF0EB11CE3CF60683C
:100FC0006C83CD825E0126E0A20EB11CDBCF32968F
:100FD0009081992309F486CF8913F9CF81818823E1
:100FE00009F480CFF8011486682FAFCF0190F0810B
:100FF000E02D8085882331F0F801E15BFF4F84E02C
:1010000090E03ECF81E03FCFCF93DF93DC01EB0157
:10101000EC81FD818A819B810896E817F90740F4ED
:1010200081E08887F0E0E0E0CF01DF91CF91089583
:101030003897FD83EC833097B9F31296CD91DC910C
:101040001397209791F0CF018C1B9D0B23E0959572
:1010500087952A95E1F78D831396FC93EE9312976B
:101060001582148217821682DFCF1196FC93EE93BD
:10107000F3CFEF92FF920F931F93CF93DF937C01F7
:10108000DC0112962D913C911397ED91FC91AB01EF
:10109000420F531FEF01C60FD71FC217D307A0F48B
:1010A000888181110BC0E901CF014C175D0751F018
:1010B0000991DC011D91CD010117B9F381918111D5
:1010C000FDCFE8CF309751F4620F731FCB0101962B
:1010D000F70193838283DB011C92F901CF01DF9139
:1010E000CF911F910F91FF90EF900895FC01258102
:1010F000222339F0F8E02F0290011124820F931F70
:10110000089590E080E00895FC0101900020E9F747
:101110003197AF01481B590BBC018DEB9AE10C9440
:1011200015038F929F92AF92BF920F931F93CF930D
:10113000DF93CDB7DEB7A1970FB6F894DEBF0FBE31
:10114000CDBF19A2423008F44AE08E010F5D1F4F57
:10115000842E912CB12CA12CA50194010E9435184C
:10116000E62FB901CA01EA30F4F4E05DD801EE934C
:101170008D01232B242B252B79F790E080E010970D
:1011800019F0CD010E948408A1960FB6F894DEBF35
:101190000FBECDBFDF91CF911F910F91BF90AF9048
:1011A0009F908F900895E95CE1CFCF92DF92EF920C
:1011B000FF92CF93DF936B017C016DE28DEB9AE19F
:1011C0000E94AB03EC0166277727CB016C197D09E0
:1011D0008E099F094AE00E9491088C0F9D1FDF91A4
:1011E000CF91FF90EF90DF90CF900895BC01990FC1
:1011F000880B990B97FD0C94D5084AE00C94910844
:10120000FB0101900020E9F73197AF01461B570B16
:101210000C94AA051F93CF93DF93E8E3F2E01281C9
:10122000112379F0329621816213F9CFEC016CE53C
:101230000E949505612FCE01DF91CF911F910C94F3
:1012400095056111F9CF69E472E0DF91CF911F91AB
:101250000C9400092F923F924F925F926F927F926F
:101260008F929F92AF92BF92CF92DF92EF92FF92B6
:101270000F931F93CF93DF93CDB7DEB76C970FB665
:10128000F894DEBF0FBECDBF8C011B01DC011496AC
:101290008C9114978F77863009F492C268F582306A
:1012A000A0F11296ED90FC901397CC901196DC90E3
:1012B000843008F056C2A701B601C1010E94AA05F8
:1012C000F101828193816C960FB6F894DEBF0FBE58
:1012D000CDBFDF91CF911F910F91FF90EF90DF90E5
:1012E000CF90BF90AF909F908F907F906F905F90C6
:1012F0004F903F902F9008958C3069F160F48830C2
:1013000009F459C28A3009F43FC260E572E0C101B4
:101310000E940009E5C1803209F4ECC18034A9F7CC
:101320006BE5C1010E949505F8010081118101154D
:10133000110509F4DAC1B101C8010E942A09C801E6
:101340000E9476088C01892B09F4CFC16CE2C1019F
:101350000E949505ECCFF801C080D180E280F38037
:10136000A7019601C701B6010E94DF168111CDCFFA
:1013700020E030E0A901C701B6010E94DF168823F2
:1013800079F0A7019601C701B6010E948A189B0156
:10139000AC01C701B6010E94DF16882309F4B5CF5E
:1013A00020E030E0A901C701B6010E94DF1687FFE7
:1013B00008C06DE2C1010E949505F7FAF094F7F8B4
:1013C000F09420E836E948E15BE4C701B6010E94E9
:1013D000251987FD81C074E1A72EB12C00E210E031
:1013E000188E1F8AF501E053FD4F259135914591E7
:1013F0005491C701B6010E94251987FD13C0F5015C
:10140000E851FD4F2591359145915491C701B601A1
:101410000E9445176B017C012F89388D200F311FE9
:10142000388F2F8B1595079534E0A31AB1088CEFF0
:10143000A8168FEFB806B1F655245A9420E030E094
:10144000A901C701B6010E94251918160CF04BC05E
:101450002CEA35EC47E257E3C701B6010E94DF16DC
:1014600018160CF440C0A52DB4E0AB02C001112445
:10147000B12CA12CFC01E856FE4F3F019C012053EA
:101480003D4F49013FEF531671F1F301EA0DFB1D8A
:101490002591359145915491C701B6010E94DF16FF
:1014A00087FF13C0F401EA0DFB1D2591359145918D
:1014B0005491C701B6010E9445176B017C018F89C9
:1014C000988D801B910B988F8F8B159507955A944B
:1014D00094E0A91AB108D6CF00E210E055E0552EED
:1014E000188E1F8AABCFC701B6010E94F6184B01B8
:1014F0005C012B013C0106E080E492E4AFE0B0E047
:10150000898F9A8FAB8FBC8F102F01509AE04916AC
:10151000510461047104C8F0698D7A8D8B8D9C8DA6
:101520002AE030E040E050E00E943518298F3A8FE1
:101530004B8F5C8FC301B2012AE030E040E050E005
:101540000E94351829013A01DFCFC501B4010E947C
:10155000E4169B01AC01C701B6010E9489186B011A
:101560007C01698D7A8D8B8D9C8D0E94E4169B0188
:10157000AC01C701B6010E9445172B013C010E9436
:10158000F6186B017C010E94E4169B01AC01C301BB
:10159000B2010E9489189B01AC010E948A180E9426
:1015A000F618C60ED71EE81EF91E898D9A8DAB8DD2
:1015B000BC8DC816D906EA06FB06D8F09FEF891A3B
:1015C000990AA90AB90AAF89B88DAB2B39F1BAE0EB
:1015D0008B169104A104B10408F1EF89F88D3196BE
:1015E000F88FEF8BC12CD12C7601812C912C5401DA
:1015F00083942AE0422E512C612C712CC701B60134
:10160000A30192010E943518672B682B692B51F4B6
:10161000111644F469017A011150F0CFC12CD12C7C
:101620007601E7CFB501A401C1010E94BF051123D6
:1016300071F14E01F1E18F0E911C012F54019AE0DE
:10164000492E512C612C712C015068F0C701B60154
:10165000A30192010E943518605DD4016E934D0183
:1016600069017A01F1CF812F90E0BC0160957095FE
:10167000F501E81BF90B31978EE28083442755274B
:10168000461B570B6A0D7B1DC1010E94AA05EF89FD
:10169000F88DEF2B29F165E6C1010E9495050F89B0
:1016A000188D17FF07C06DE2C1010E9495051195C5
:1016B00001951109FE0177969F018AE0E82EF12C31
:1016C000C801B7010E946618805D82938B01672B69
:1016D000B9F7A9014E1B5F0BBF01C1010E94AA050A
:1016E000D10112968D919C91EECD6DE5C1010E94C4
:1016F0009505F6CF6BE7C1010E949505F8010081C1
:1017000011810115110559F1D8011696CC90169743
:101710001796DC9062E2C1010E9495057601F701FF
:1017200061917F01662321F0C1010E940A09F7CF70
:1017300062E2C1010E9495056AE3C1010E9495051C
:10174000B101C8010E942A09C8010E9476088C01D3
:10175000892B29F06CE2C1010E949505D2CF6DE77B
:10176000C5CF62E2C1010E9495058601E00EF11E1F
:10177000E016F10639F0F80161918F01C1010E9474
:101780000A09F6CF62E2B2CFCD90DD90ED90FC90E9
:10179000B701A601F7FE0BC06DE2C1010E949505DD
:1017A00044275527BA014C195D096E097F09C1010B
:1017B0000E94BF0585CD4D915D916D917C91F7CFD4
:1017C0008C9165E572E0811102C06AE572E0C101A9
:1017D0000E94000975CD0E9485190F931F93CF9326
:1017E000DF93D0E0C0E06115710591F08B01FC0141
:1017F000C081D181209761F06E817F81C8010E94F4
:101800008A19892B29F0CE010E947608EC01F2CFCB
:10181000CE01DF91CF911F910F9108954F925F926A
:101820006F927F92BF92CF92DF92EF92FF920F93CF
:101830001F93CF93DF93EC018B01E42E0E9484066B
:10184000F82E811110C0F12C8F2DDF91CF911F91B7
:101850000F91FF90EF90DF90CF90BF907F906F90AF
:101860005F904F900895CE010E942306873209F4BD
:101870002BC10CF5823209F427C1CE010E94230648
:10188000B82E6E01FFE0CF0ED11CE12C36018B2D5E
:101890000E940B06882309F443C12FE3E21609F4E2
:1018A0003FC11C86E394F601B1926F01CE010E9404
:1018B0002306B82EECCF8B3509F44AC08B37E9F6F6
:1018C000F80184818078806284831182108213827F
:1018D0001282EE2009F447C01C86CE010E948406C5
:1018E000882309F4B0CF6DE7CE010E947306D82E8D
:1018F0008111AACFCC24C394EA94E881F981828132
:1019000093819B838A838481958122813381821B89
:10191000930B9F838E831D821C82892B09F4C086C2
:10192000CE010E942306873209F45DC0823209F499
:101930005AC0CE010E942306F82E0E940B06811188
:1019400059C0C15BDF4F83E090E09983888350C02A
:10195000F8018481807880648483118210821382EC
:101960001282E11007C0C15BDF4F85E090E09983F0
:10197000888369CF1C86CE010E948406882309F4DF
:1019800062CF6DE5CE010E94730681115DCFEA94AE
:101990006D857E85C8010E940408009729F4C15B0B
:1019A000DF4F84E090E0E3CF4E2DBC01CE010E94DA
:1019B0000E0C882309F447CFCE010E9484068823A9
:1019C00009F441CF6DE5CE010E94730681113CCF31
:1019D0006CE2CE010E9473068111DACFC15BDF4F4A
:1019E00083E090E0C4CFCE010E941607811119C098
:1019F000FD2C2ACF1C866F2DCE010E94FC06CE0145
:101A00000E942306F82E0E940B068111F3CFE88175
:101A1000F9818085882329F0C15BDF4F84E090E065
:101A200094CFCE010E948406882311F36AE3CE018D
:101A30000E947306882309F484CFEA81FB818C819C
:101A40009D81E80FF91F10826C807D806A817B8107
:101A5000C8010E94ED0BBC01892BA1F4B301888160
:101A600099810E9439083C016D857E85C8010E94DC
:101A70000408FC01892B81F2848180688483778249
:101A80006682BF014E2DCE010E940E0C882309F400
:101A9000AFCFCE010E948406882309F4A9CF6DE759
:101AA000CE010E94730681110DC06CE2CE010E942E
:101AB0007306882309F445CFCE010E948406811164
:101AC0001CCF96CFD82E94CFE881F9818281938163
:101AD0009B838A838481958122813381821B930B2E
:101AE0009F838E831D821C82892B11F481E0808765
:101AF000CE010E941607F82E882309F4A4CECC80CC
:101B0000DD80B601888199810E943908F80124811D
:101B100020782560248391838083D382C28294CEEF
:101B2000FE01EE0DF11D17868F85843781F4F801D3
:101B3000848180788660848381E08083F4E0EF167E
:101B400009F482CEC15BDF4F82E090E010CF863691
:101B500041F4F80184818078866084831082F5E006
:101B6000EECF8E3621F424E0E212ECCF6DCE8B3234
:101B7000D9F1F3018D32D1F5FE017096BF2C808131
:101B800090ED980F9A3018F08E3209F027CF6F0140
:101B900060E070E0CB01F6012191A0ED4A2E420EEB
:101BA00039E0341528F16A3949E97407840749E1B5
:101BB000940740F5AAE0B0E09B01AC010E94221816
:101BC000512C712C612CA3019201209530954095E8
:101BD00050952617370748075907A0F0640D751D63
:101BE000861D971D6F01D7CFFE017096B12CC7CF10
:101BF000211108C0BB2071F161307105810550E8E9
:101C00009507A0F0E12CEAE04E2E512C612C712CAE
:101C100061157105F0E88F07910530F1A30192017C
:101C20000E943518CA01B901E394F2CFF80124816A
:101C300020782A6024839B01AC0188279927DC0146
:101C4000821B930BA40BB50B80839183A283B38378
:101C5000FB2CFACDF801248120782860248360834E
:101C6000718382839383F0CDD601F60121916F01B8
:101C700030ED320F3A3010F4E394F6CF2E32F1F417
:101C8000FD013196DF0131962C9150EDD52ED20E0B
:101C900029E02D1598F06C3C3CEC73073CE0830781
:101CA000910580F7AAE0B0E09B01AC010E942218E8
:101CB0006D0D711D811D911DEA94E4CF2C912F7D36
:101CC000253409F08CC011962C9111972D32D9F53D
:101CD00012967F2CFD0130E020E0CE2C0E2C000C63
:101CE000DD084AE0542EDF01619040ED460D4A3098
:101CF00008F043C0529EA001539E500D1124262D82
:101D0000660C330B20533109240F351FA601420FF7
:101D1000531F473251053CF3F80184817720D1F0FD
:101D200040E050E060E070E8B11003C040E050E0F7
:101D3000BA0180788C60F801848340835183628388
:101D40007383F72C81CD2B3219F01196712CC2CFF1
:101D50001296FCCF40E050E060E87FEFB11004C085
:101D600040E050E060E87FE780788C60F801848391
:101D7000408351836283738367CD772019F0319557
:101D8000219531094C91411129CEE901CE0DD11D8A
:101D9000E7FCDA950E94E4161C161D061CF5E12CE2
:101DA000C0FF0CC024E0E29EF0011124E053FD4F7F
:101DB00025913591459154910E944517D595C79528
:101DC000E394209769F7B1109058F80124812078A6
:101DD0002C602483608371838283938335CD30E0CC
:101DE00020E0D0CFD195C195D109E12C209759F3AE
:101DF000C0FF0CC044E0E49EF0011124E851FD4F07
:101E000025913591459154910E944517D595C795D7
:101E1000E394ECCFEF92FF920F931F93CF93DF9356
:101E2000EC018C81982F9F7739F4807880628C83C5
:101E3000198218821B821A828C8185FF1DC0611550
:101E40007105D1F07A018B01CE010E94ED0B009754
:101E500061F4B701CE010E940408009731F0FC0143
:101E600024812F77248317830683DF91CF911F91DD
:101E70000F91FF90EF90089590E080E0F6CF0F93E0
:101E80001F93CF93DF93CDB7DEB7C356D2400FB6C3
:101E9000F894DEBF0FBECDBFCE010F969A83898323
:101EA0009C838B8383E092E08C0F9D1F9E838D83A8
:101EB00098878F8319861E8682509240C45ADD4FC0
:101EC00099838883CC55D24028E0FE01E45AFD4F27
:101ED000DE01AC5ABD4F01900D922A95E1F728E042
:101EE000FE01EC5AFD4FDE01AD5FBD4F01900D923A
:101EF0002A95E1F7C55FDD4F1882CB50D2402DEB1C
:101F00003AE1C45FDD4F39832883CC50D240C15FB2
:101F1000DD4F1882CF50D240C05FDD4F9983888358
:101F2000C051D240CE5ADD4F19821882C255D240DC
:101F30004AE0BE01665F7F4F8E5F9D4F0E940E0C90
:101F4000CE5ADD4F08811981C255D24001151105C5
:101F500001F5C25FDD4F8881CE50D2408823C9F0A1
:101F60008E8583FF16C01092B11A03E010E080E660
:101F700092E00E948408000F111FF801EA5FFD4FF4
:101F8000808191810097C9F58BE792E00E948408D7
:101F900008C01092B11A0115110549F78E8585FD0B
:101FA0000CC0CD59DD4F0FB6F894DEBF0FBECDBFCC
:101FB000DF91CF911F910F91089567E772E0CE01F5
:101FC0000A960E94ED0B009761F3FC0184818F77E4
:101FD00041F367E772E0CE010A960E94ED0BFC0127
:101FE000892B71F194819F77983009F148F49923F6
:101FF00039F19630B1F011E015C00E948408C4CFC9
:102000009A30A9F09C30B9F711E020E030E0A90146
:1020100060817181828193810E94DF16811102C0EB
:102020000FC01081612F83E30E944402BACF11E0F8
:1020300080819181A281B381892B8A2B8B2B91F78F
:1020400010E0F0CF8F929F92AF92BF92EF92FF92EB
:102050000F931F93CF93DF93CDB7DEB7C650D24017
:102060000FB6F894DEBF0FBECDBFCE010F969A8398
:1020700089839C838B838E010D5F1D4F1E830D838F
:1020800018870F8319861E868FB7F8948090B51A2B
:102090009090B61AA090B71AB090B81A8FBFAE0140
:1020A0004F5F5F4F6EE772E0CE010A960E940A0F03
:1020B000FC01892B41F09481907898609483808210
:1020C0009182A282B382AE014F5F5F4F63E872E0FC
:1020D000CE010A960E940A0FBC018091B21A90911B
:1020E000B31A0E9484058DE10E941B027C01AE019F
:1020F0004F5F5F4F67E872E0CE010A960E940A0FB9
:10210000BC01C7010E9484058FE10E941B027C0173
:10211000AE014F5F5F4F6FE872E0CE010A960E94FA
:102120000A0FBC01C7010E94840583E20E941B02C2
:102130007C01AE014F5F5F4F67E972E0CE010A9606
:102140000E940A0FBC01C7010E94840581E20E941F
:102150001B027C01AE014F5F5F4F6FE972E0CE0161
:102160000A960E940A0FBC01C7010E94840585E4FB
:102170000E94A3027C01AE014F5F5F4F67EA72E0ED
:10218000CE010A960E940A0FBC01C7010E94840575
:1021900084E40E94A3027C01AE014F5F5F4F6CEAB2
:1021A00072E0CE010A960E940A0FBC01C7010E948C
:1021B000840583E40E94A3027C01AE014F5F5F4F60
:1021C00061EB72E0CE010A960E940A0FBC01C701C2
:1021D0000E94840581E40E94A3027C01AE014F5F4E
:1021E0005F4F66EB72E0CE010A960E940A0FBC01B7
:1021F000C7010E94840580E40E94A3027C01AE0115
:102200004F5F5F4F6BEB72E0CE010A960E940A0FA0
:10221000BC01C7010E94840585E30E941B027C016A
:10222000AE014F5F5F4F60EC72E0CE010A960E94F4
:102230000A0FBC01C7010E94840587E10E941B02AE
:102240007C01AE014F5F5F4F6AEC72E0CE010A96EF
:102250000E940A0FBC01C7010E94840589E10E9407
:102260001B027C01AE014F5F5F4F64ED72E0CE0157
:102270000A960E940A0FBC01C7010E94840585E4EA
:102280000E94A3027C0184E40E94A30222E0E226D1
:10229000E2E08E27E80EF91E83E40E94A302BC014F
:1022A000F2E06F276E0D7F1D072E000C880B990B37
:1022B0000E94E6160E9430194B015C0120E030E0DC
:1022C00048E052E40E942519EE24E394F12C1816FC
:1022D00054F020E030E048EE51E4C501B4010E9422
:1022E000DF1687FFE12CAE014F5F5F4F6EED72E0AE
:1022F000CE010A960E940A0FBC01C7010E94840504
:1023000060913703709138038091390390913A03BB
:10231000611571058105910511F00E94D6160E9484
:1023200087164B015C01AE014F5F5F4F64EE72E0B8
:10233000CE010A960E940A0F7C01009791F0FC01E1
:10234000848180788A608483C501B4012AE030E00A
:1023500040E050E00E940318F7016083718382839C
:1023600093838DEB9AE1F80191838083138212822B
:10237000B801CE010A960E942A098BE792E00E94DA
:10238000840810923603CA5FDD4F0FB6F894DEBFA3
:102390000FBECDBFDF91CF911F910F91FF90EF90B6
:1023A000BF90AF909F908F9008951F920F920FB69D
:1023B0000F9211242F933F938F939F93AF93BF93CB
:1023C0008091B51A9091B61AA091B71AB091B81A27
:1023D0003091B41A23E0230F2D3758F50196A11D33
:1023E000B11D2093B41A8093B51A9093B61AA09396
:1023F000B71AB093B81A8091B91A9091BA1AA091ED
:10240000BB1AB091BC1A0196A11DB11D8093B91AD7
:102410009093BA1AA093BB1AB093BC1ABF91AF9114
:102420009F918F913F912F910F900FBE0F901F9012
:10243000189526E8230F0296A11DB11DD2CF1F9239
:102440000F920FB60F9211240BB60F922F933F935A
:102450004F935F936F937F938F939F93AF93BF93AC
:10246000EF93FF938DEB9AE10E948903FF91EF9127
:10247000BF91AF919F918F917F916F915F914F919C
:102480003F912F910F900BBE0F900FBE0F901F909A
:1024900018951F920F920FB60F9211240BB60F9240
:1024A0002F938F939F93EF93FF93E091CD1AF09129
:1024B000CE1A8081E091D31AF091D41A82FD1DC00A
:1024C00090818091D61A8F5F8F732091D71A8217CF
:1024D00041F0E091D61AF0E0E354F54E958F8093E9
:1024E000D61AFF91EF919F918F912F910F900BBE74
:1024F0000F900FBE0F901F9018958081F2CF1F9202
:102500000F920FB60F9211240BB60F922F933F9399
:102510004F935F936F937F938F939F93AF93BF93EB
:10252000EF93FF93E0910002F09101021995FF9162
:10253000EF91BF91AF919F918F917F916F915F913B
:102540004F913F912F910F900BBE0F900FBE0F90A8
:102550001F901895CF93DF931092C01A1092BF1A54
:1025600088EE93E0A0E0B0E08093C11A9093C21A85
:10257000A093C31AB093C41A86E192E09093BE1A56
:102580008093BD1A85EC90E09093CA1A8093C91A83
:1025900084EC90E09093CC1A8093CB1A80EC90E07E
:1025A0009093CE1A8093CD1A81EC90E09093D01A3C
:1025B0008093CF1A82EC90E09093D21A8093D11A34
:1025C00086EC90E09093D41A8093D31A1092D61A86
:1025D0001092D71A1092D81A1092D91A10925D1B25
:1025E00010925C1B88E292E090935B1B80935A1BD5
:1025F00086E18093651B8FEF8093661B88E1809353
:10260000671B8AE18093681B8CE18093691B8EE1D4
:1026100080936A1B80E280936B1B10926C1B10925C
:102620006D1B10926E1B10926F1BC8E6DBE161E020
:1026300089910E9472028BE1CC36D807C1F761E024
:102640008091651B0E9472028091661B8F3F19F07A
:1026500061E00E94720261E08091671B0E94720239
:1026600010925E1B60E08091651B0E94440260E056
:102670008091671B0E9444028091661B8F3F19F076
:1026800060E00E9444028FEF8093701B1092641BE5
:102690001092631BDF91CF910895789484B5826086
:1026A00084BD84B5816084BD85B5826085BD85B5F6
:1026B000816085BD80916E00816080936E00109274
:1026C00081008091810082608093810080918100EF
:1026D0008160809381008091800081608093800080
:1026E0008091B10084608093B1008091B0008160DE
:1026F0008093B000809191008260809391008091DE
:10270000910081608093910080919000816080931E
:1027100090008091A10082608093A1008091A1002F
:1027200081608093A1008091A00081608093A000CF
:10273000809121018260809321018091210181603B
:1027400080932101809120018160809320018091FC
:102750007A00846080937A0080917A00826080930E
:102760007A0080917A00816080937A0080917A006B
:10277000806880937A001092C100E091CD1AF091A8
:10278000CE1A82E08083E091C91AF091CA1A1082B1
:10279000E091CB1AF091CC1A90E190831092D51A67
:1027A000E091D11AF091D21A86E08083E091CF1A9D
:1027B000F091D01A808180618083E091CF1AF091EE
:1027C000D01A808188608083E091CF1AF091D01A6E
:1027D000808180688083E091CF1AF091D01A808147
:1027E0008F7D8083909381001092800080E991E03A
:1027F000909387008093860081E1809381008AEA2C
:1028000096E0909301028093000281E080936F0034
:1028100080917C00806480937C0080917A0010928B
:102820007A0080917A00856880937A0060E08EE378
:102830000E94720261E08CE00E94720261E08BE013
:102840000E94720261E08AE00E94720261E089E007
:102850000E94720261E088E00E94720261E087E0FB
:102860000E94720261E086E00E94720261E085E0EF
:102870000E94720261E084E00E94720261E083E0E3
:102880000E94720261E083E30E94720261E081E3D0
:102890000E94720261E08FE20E94720261E08DE2AA
:1028A0000E94720260E085E40E94720260E084E4AB
:1028B0000E94720260E083E40E94720261E08DE097
:1028C0000E94720260E08DE10E94720260E08FE17E
:1028D0000E94720260E083E20E94720260E081E284
:1028E0000E94720261E08DE10E94440261E08FE18A
:1028F0000E94440261E083E20E94440261E081E2BE
:102900000E94440260E087E10E94720260E089E177
:102910000E94720261E087E10E94440261E089E165
:102920000E94440260E081E40E94720260E080E460
:102930000E94720260E085E30E94720220E042E0A1
:1029400060E18AE59BE10E94F2040E94E00284EDCE
:10295000882E83E0982EA12CB12C0BE91FE097E67E
:10296000E92E93E0F92ECC24CA94DC2C8FE30E944C
:10297000A3029093B31A8093B21A2AE030E0DC01EC
:102980000E948218A50194010E9403182B30310582
:102990004105510508F03AC0F9018827ED52FB4E78
:1029A0008F4F0C947A18DE14731575157B158515E9
:1029B0009315A515BB15D515F315151661E08CE01B
:1029C0000E94440261E08BE00E94440261E08AE0E0
:1029D0000E94440261E089E00E94440261E088E0D4
:1029E0000E94440261E087E00E94440261E086E0C8
:1029F0000E94440261E085E00E94440261E084E0BC
:102A00000E94440261E083E00E9444028DE10E9442
:102A10001B0260E0892B09F061E08FE20E94440212
:102A20008FE10E941B0260E0892B09F061E081E3E5
:102A30000E94440283E20E941B0260E0892B09F09D
:102A400061E083E30E94440281E20E941B0260E095
:102A5000892B09F061E08DE20E9444028091B11A55
:102A6000882339F00E943F0F0E942210C80101976D
:102A7000F1F78091AF1A9091B01A883B9B4084F196
:102A8000CFE3D3E08BEE92E00E9484088991999184
:102A90000E94F60881EF92E00E94840883EF92E0A2
:102AA0000E9484088CE291E00E94F60881EF92E097
:102AB0000E94840886EF92E00E9484084AE06CEB52
:102AC00072E080E090E00E9491088BE792E00E9423
:102AD0008408EC16FD06B1F6D092B01AC092AF1A77
:102AE0000E941C0443CF60E06ACF60E08CE00E944B
:102AF000440260E068CF60E08CE00E94440260E045
:102B00008BE00E94440260E062CF60E08CE00E94B3
:102B1000440260E08BE00E94440260E08AE00E9490
:102B2000440260E058CF60E08CE00E94440260E024
:102B30008BE00E94440260E08AE00E94440260E070
:102B400089E00E94440260E04ACF60E08CE00E948D
:102B5000440260E08BE00E94440260E08AE00E9450
:102B6000440260E089E00E94440260E088E00E9444
:102B7000440260E038CF60E08CE00E94440260E0F4
:102B80008BE00E94440260E08AE00E94440260E020
:102B900089E00E94440260E088E00E94440260E014
:102BA00087E00E94440260E022CF60E08CE00E9457
:102BB000440260E08BE00E94440260E08AE00E94F0
:102BC000440260E089E00E94440260E088E00E94E4
:102BD000440260E087E00E94440260E086E00E94D8
:102BE000440260E008CF60E08CE00E94440260E0B4
:102BF0008BE00E94440260E08AE00E94440260E0B0
:102C000089E00E94440260E088E00E94440260E0A3
:102C100087E00E94440260E086E00E94440260E097
:102C200085E00E94440260E0EACE60E08CE00E9411
:102C3000440260E08BE00E94440260E08AE00E946F
:102C4000440260E089E00E94440260E088E00E9463
:102C5000440260E087E00E94440260E086E00E9457
:102C6000440260E085E00E94440260E084E00E944B
:102C7000440260E0C8CE8F929F92AF92BF92CF92F3
:102C8000DF92EF92FF92CF93DF93EC01688179811D
:102C90008A819B81611571058105910521F464E2AA
:102CA00079ED8BE597E02DE133EF41E050E00E94B4
:102CB000031849015A019B01AC01A7EAB1E40E9443
:102CC00022186B017C01ACEEB4EFA50194010E94C7
:102CD0003018C60ED71EE81EF91EF7FE06C081E0AA
:102CE000C81AD108E10880E8F80AC882D982EA82C5
:102CF000FB82C701B6019F77DF91CF91FF90EF90E4
:102D0000DF90CF90BF90AF909F908F9008958F925B
:102D10009F92AF92BF92CF92DF92EF92FF9260911B
:102D200002027091030280910402909105026115E4
:102D300071058105910521F464E279ED8BE597E059
:102D40002DE133EF41E050E00E94031849015A01A0
:102D50009B01AC01A7EAB1E40E9422186B017C013F
:102D6000ACEEB4EFA50194010E943018C60ED71E38
:102D7000E81EF91EF7FE06C081E0C81AD108E10876
:102D800080E8F80AC0920202D0920302E0920402A4
:102D9000F0920502C701B6019F77FF90EF90DF9098
:102DA000CF90BF90AF909F908F9008956093020254
:102DB00070930302809304029093050208950E9489
:102DC000211708F481E00895E89409C097FB3EF4C8
:102DD00090958095709561957F4F8F4F9F4F992368
:102DE000A9F0F92F96E9BB279395F69587957795E6
:102DF0006795B795F111F8CFFAF4BB0F11F460FFA6
:102E00001BC06F5F7F4F8F4F9F4F16C0882311F0FD
:102E100096E911C0772321F09EE8872F762F05C011
:102E2000662371F096E8862F70E060E02AF09A95AC
:102E3000660F771F881FDAF7880F9695879597F9A1
:102E40000895990F0008550FAA0BE0E8FEEF16163B
:102E50001706E807F907C0F012161306E407F5078E
:102E600098F0621B730B840B950B39F40A2661F002
:102E7000232B242B252B21F408950A2609F4A140A5
:102E8000A6958FEF811D811D08950E9458170C94FF
:102E9000C9170E94BB1738F00E94C21720F0952373
:102EA00011F00C94B2170C94B81711240C94FD1760
:102EB0000E94DA1770F3959FC1F3950F50E0551FEC
:102EC000629FF001729FBB27F00DB11D639FAA277F
:102ED000F00DB11DAA1F649F6627B00DA11D661FCE
:102EE000829F2227B00DA11D621F739FB00DA11DEF
:102EF000621F839FA00D611D221F749F3327A00DA9
:102F0000611D231F849F600D211D822F762F6A2F44
:102F100011249F5750409AF0F1F088234AF0EE0FA9
:102F2000FF1FBB1F661F771F881F91505040A9F7D6
:102F30009E3F510580F00C94B2170C94FD175F3F33
:102F4000E4F3983ED4F3869577956795B795F79512
:102F5000E7959F5FC1F7FE2B880F911D969587958A
:102F600097F9089597F99F6780E870E060E0089509
:102F70009FEF80EC089500240A9416161706180691
:102F80000906089500240A9412161306140605066D
:102F90000895092E0394000C11F4882352F0BB0FFE
:102FA00040F4BF2B11F460FF04C06F5F7F4F8F4F61
:102FB0009F4F089557FD9058440F551F59F05F3F9C
:102FC00071F04795880F97FB991F61F09F3F79F04B
:102FD00087950895121613061406551FF2CF4695CD
:102FE000F1DF08C0161617061806991FF1CF86954F
:102FF0007105610508940895E894BB276627772733
:10300000CB0197F90895052E97FB1EF400940E94BA
:103010001A1857FD07D00E94351807FC03D04EF44C
:103020000C941A1850954095309521953F4F4F4F6D
:103030005F4F089590958095709561957F4F8F4F64
:103040009F4F08950E945718A59F900DB49F900D13
:10305000A49F800D911D11240895B7FF0C94221890
:103060000E942218821B930B0895A1E21A2EAA1B1C
:10307000BB1BFD010DC0AA1FBB1FEE1FFF1FA21728
:10308000B307E407F50720F0A21BB30BE40BF50B25
:10309000661F771F881F991F1A9469F760957095AE
:1030A000809590959B01AC01BD01CF010895A29F31
:1030B000B001B39FC001A39F700D811D1124911D0C
:1030C000B29F700D811D1124911D0895AA1BBB1B79
:1030D00051E107C0AA1FBB1FA617B70710F0A61B18
:1030E000B70B881F991F5A95A9F780959095BC0139
:1030F000CD010895EE0FFF1F881F8BBF0790F6913B
:10310000E02D19940E945718B7FF0895821B930B66
:1031100008955058BB27AA270E94A1180C94C917DC
:103120000E94BB1738F00E94C21720F039F49F3F6D
:1031300019F426F40C94B8170EF4E095E7FB0C9400
:10314000B217E92F0E94DA1758F3BA17620773070C
:103150008407950720F079F4A6F50C94FC170EF47B
:10316000E0950B2EBA2FA02D0B01B90190010C0197
:10317000CA01A0011124FF27591B99F0593F50F4AF
:10318000503E68F11A16F040A22F232F342F442707
:10319000585FF3CF469537952795A795F0405395FF
:1031A000C9F77EF41F16BA0B620B730B840BBAF0CF
:1031B0009150A1F0FF0FBB1F661F771F881FC2F73A
:1031C0000EC0BA0F621F731F841F48F4879577954E
:1031D0006795B795F7959E3F08F0B0CF9395880F08
:1031E00008F09927EE0F9795879508950E94E217AA
:1031F00088F09F5798F0B92F9927B751B0F0E1F0B8
:10320000660F771F881F991F1AF0BA95C9F714C067
:10321000B13091F00E94FC17B1E008950C94FC17B6
:10322000672F782F8827B85F39F0B93FCCF38695A0
:1032300077956795B395D9F73EF4909580957095FD
:1032400061957F4F8F4F9F4F08950E94211708F47B
:103250008FEF089519F416F40C94B8170C947019A4
:103260000E94E217B8F39923C9F3B6F39F57550BA1
:1032700087FF0E947E190024A0E640EA9001805852
:103280005695979528F4805C660F771F881F20F06D
:1032900026173707480730F4621B730B840B20296D
:1032A00031294A2BA69517940794202531254A27C2
:1032B00058F7660F771F881F20F026173707480733
:1032C00030F4620B730B840B200D311D411DA09552
:1032D00081F7B901842F9158880F969587950895A5
:1032E0009F3F31F0915020F4879577956795B7957A
:1032F000880F911D9695879597F9089591505040A4
:10330000660F771F881FD2F7089581E090E0F89448
:103310000C949319FB01DC018D910190801901102F
:0A332000D9F3990B0895F894FFCF3C
:10332A004B0401000000F902FC02070317032403FF
:10333A002D0300000000AB0315034203F8037303D7
:10334A005103650300000000DF04150381058005B1
:10335A00F20495048204B1042F2F22225C5C6208D5
:10336A00660C6E0A720D7409005C753030303000DC
:10337A006E756C6C00747275650066616C736500BD
:10338A00646573657269616C697A6528292066616A
:10339A00696C65643A20006C6564000D0A00746902
:1033AA006D6500706F7400626F75746F6E310062C4
:1033BA006F75746F6E3200626F75746F6E33006270
:1033CA006F75746F6E3400416363580041636359CB
:1033DA00004163635A004A6F7958004A6F7959006D
:1033EA004A6F79426F75746F6E00476163686574DE
:1033FA007465310047616368657474653200736887
:10340A00616B650072616E646F6D00446174613A4C
:10341A00002C00623A006F3A004F6B00456D7074E1
:10342A0079496E70757400496E636F6D706C65745E
:10343A0065496E70757400496E76616C6964496E8F
:10344A00707574004E6F4D656D6F727900546F6FB1
:06345A00446565700000EE
:00000001FF
