:100000000C947D010C94AE010C94AE010C94AE01E5
:100010000C94AE010C94AE010C94AE010C94AE01A4
:100020000C94AE010C94AE010C94AE010C94AE0194
:100030000C94AE010C94AE010C94AE010C94AE0184
:100040000C94AE010C94AE010C94AE010C94AE0174
:100050000C94AE010C94AE010C94AE010C946A1198
:100060000C94AE010C94DE110C94B4110C94AE01FE
:100070000C94AE010C94AE010C94AE010C94AE0144
:100080000C94AE010C94AE010C94AE010C94AE0134
:100090000C94AE010C94AE010C94AE010C94AE0124
:1000A0000C94AE010C94AE010C94AE010C94AE0114
:1000B0000C94AE010C94AE010C94AE010C94AE0104
:1000C0000C94AE010C94AE010C94AE010C94AE01F4
:1000D0000C94AE010C94AE010C94AE010C94AE01E4
:1000E0000C94AE010C94CE010C94F4030C94F70123
:1000F0000C94C0050C9464140C94ED010C94F11450
:100100000C9461030C94FB010C94BF050C94BF1478
:100110000C9407150C94E3010C942D050C943F15D9
:100120000C9461150C94D8010C946F030C940E027E
:100130000C9490040C9411030C94DC010C94C714DF
:100140000C94E9010C94E0010C9414120C9401023B
:100150000C94C1140C94DF140C9413020C94D4016D
:100160000C9405020C9421150C94DA040C944D03A4
:100170000C940F020C947D040C943E030C94A70382
:100180000C94D1140C94AC040C94F3010C9409025B
:100190000000803FCDCCCC3D6F12833A95BFD63363
:1001A0007D1D9026B3CE010C000021002400270005
:1001B0002A002D0030003300010100000401070176
:1001C0000A0100002200250028002B002E0031002B
:1001D000340002010000050108010B0100002000AD
:1001E0002300260029002C002F003200000100000F
:1001F00003010601090105050505070508080808AA
:10020000020202020A0A08080404040401010101AE
:1002100001010101030303030303030304070707A9
:100220000C0C0C0C0C0C0C0C02020202060606064E
:10023000060606060B0B0B0B0B0B0B0B010210201B
:10024000200808102040102040800201020108040C
:1002500002010102040810204080804020100804A0
:1002600002018004020180402010080402010804F9
:10027000020101020408102040800102040810203D
:10028000408000000A0B02090C0D0E080703040150
:10029000000000000000000000000000000000005E
:1002A000000000000000000000000000000012112B
:1002B000100000000000000000000000000000002E
:1002C0000000000000000000000020410000C842C3
:1002D00000401C4620BCBE4CCA1B0E5AAEC59D74C5
:1002E000CDCCCC3D0AD7233C17B7D13877CC2B32B5
:1002F0009595E6241FB14F0A141211241FBECFEFAB
:10030000D1E2DEBFCDBF00E00CBF13E0A0E0B2E061
:10031000E4EBFFE200E00BBF02C007900D92A633B2
:10032000B107D9F723E0A6E3B3E001C01D92A53FD2
:10033000B207E1F711E0CDE7D1E000E006C0219778
:100340000109802FFE010E941A17CC37D10780E0E7
:100350000807A9F70E94B7120C94D8170C94000054
:100360008150823108F05AC0E82FF0E08827E45429
:10037000FE4F8F4F0C941A17DC01E001CE01D4011F
:10038000D8010E02E301E901ED01F301F701FB01E0
:10039000010205020E0209020F0213028091800081
:1003A0008F77809380000895809180008F7DF9CFB2
:1003B00080918000877FF5CF84B58F7784BD0895C5
:1003C00084B58F7DFBCF8091B0008F778093B00094
:1003D00008958091B0008F7DF9CF809190008F7744
:1003E000809390000895809190008F7DF9CF809147
:1003F0009000877FF5CF8091A0008F778093A00039
:1004000008958091A0008F7DF9CF8091A000877F13
:10041000F5CF809120018F778093200108958091FE
:1004200020018F7DF9CF80912001877FF5CFCF9379
:10043000DF93282F30E0F901EE57FD4F8491F90149
:10044000E45CFD4FD491F901EA50FE4FC491CC23F6
:10045000A1F081110E94B001EC2FF0E0EE0FFF1F20
:10046000E452FE4FA591B491EC91ED2381E090E030
:1004700009F480E0DF91CF91089580E090E0FACF19
:100480001F93CF93DF93282F30E0F901EE57FD4FF4
:100490008491F901E45CFD4FD491F901EA50FE4FDB
:1004A000C491CC23A9F0162F81110E94B001EC2F2A
:1004B000F0E0EE0FFF1FEE53FE4FA591B4918FB702
:1004C000F894EC91111108C0D095DE23DC938FBF16
:1004D000DF91CF911F910895DE2BF8CFCF93DF935B
:1004E00090E0FC01E45CFD4F24918A509E4FFC019A
:1004F00084918823D1F090E0880F991FFC01E85582
:10050000FE4FA591B491FC01EE53FE4FC591D491DD
:1005100061110EC09FB7F8948C91E22FE0958E2365
:100520008C932881E223E8839FBFDF91CF910895C8
:100530008FB7F894EC91E22BEC938FBFF6CF8653F4
:1005400020917B00982F987F277F922B90937B00A0
:100550008770806480937C0080917A0080648093AF
:100560007A0080917A0086FDFCCF8091780090918E
:10057000790008953FB7F89480913D0390913E0330
:10058000A0913F03B091400326B5A89B05C02F3F23
:1005900019F00196A11DB11D3FBFBA2FA92F982FA9
:1005A0008827BC01CD01620F711D811D911D42E0A4
:1005B000660F771F881F991F4A95D1F708958F926C
:1005C0009F92AF92BF92CF92DF92EF92FF924B0138
:1005D0005C010E94BA026B017C010E94BA026C1994
:1005E0007D098E099F09683E734081059105A8F336
:1005F00021E0821A9108A108B10888EEC80E83E0B4
:10060000D81EE11CF11C81149104A104B10429F746
:10061000FF90EF90DF90CF90BF90AF909F908F9022
:100620000895AF92BF92CF92DF92EF92FF920F9315
:100630001F93CF93DF936C017B018B01040F151F78
:10064000EB015E01AE18BF08C017D10759F06991E0
:10065000D601ED91FC910190F081E02DC601199534
:10066000892B79F7C501DF91CF911F910F91FF90F1
:10067000EF90DF90CF90BF90AF900895FC01538D25
:10068000448D252F30E0842F90E0821B930B54176C
:1006900010F0CF96089501970895FC01918D828DF9
:1006A000981761F0A28DAE0FBF2FB11D5D968C9192
:1006B000928D9F5F9F73928F90E008958FEF9FEFD1
:1006C0000895FC01918D828D981731F0828DE80F8D
:1006D000F11D858D90E008958FEF9FEF0895FC0147
:1006E000918D228D892F90E0805C9F4F821B910914
:1006F0008F739927089581E493E00E946F0321E0AE
:10070000892B09F420E0822F0895FC01A48DA80F05
:10071000B92FB11DA35ABF4F2C91848D90E0019643
:100720008F739927848FA689B7892C93A089B18963
:100730008C91837080648C93938D848D981306C004
:100740000288F389E02D80818F7D80830895EF9268
:10075000FF920F931F93CF93DF93EC0181E0888F7B
:100760009B8D8C8D98131AC0E889F989808185FF4B
:1007700015C09FB7F894EE89FF896083E889F989ED
:1007800080818370806480839FBF81E090E0DF91EF
:10079000CF911F910F91FF90EF900895F62E0B8D42
:1007A00010E00F5F1F4F0F731127E02E8C8D8E11FD
:1007B0000CC00FB607FCFACFE889F989808185FF64
:1007C000F5CFCE010E948503F1CFEB8DEC0FFD2F0D
:1007D000F11DE35AFF4FF0829FB7F8940B8FEA891F
:1007E000FB8980818062CFCFCF93DF93EC01888D2E
:1007F0008823B9F0AA89BB89E889F9898C9185FD9C
:1008000003C0808186FD0DC00FB607FCF7CF8C9129
:1008100085FFF2CF808185FFEDCFCE010E94850359
:10082000E9CFDF91CF91089581E080933703089558
:100830000E947B03882319F081E08093370380E0D6
:1008400090E0892B49F080E090E0892B29F00E940C
:10085000000081110E94000080E090E0892B49F0A7
:1008600080E090E0892B29F00E94000081110E9415
:10087000000080E090E0892B49F080E090E0892B37
:1008800029F00E94000081110C9400000895BF928D
:10089000CF92DF92EF92FF920F931F93CF93DF934C
:1008A0008C01B42E6C018EE0C80ED11CD0E0C0E0EB
:1008B000E62EF12CB7010C2E02C0759567950A94AF
:1008C000E2F76170F60181916F010E94400221966A
:1008D000CB1580F361E0F80185850E94400260E05D
:1008E000F8018585DF91CF911F910F91FF90EF90D7
:1008F000DF90CF90BF900C944002FC0186898F3F1F
:1009000071F021853285662329F0232B31F461E0D3
:100910000C94400221303105D1F360E0F9CF089505
:10092000EF92FF921F93CF93DF93EC01162F7A0182
:1009300061E0812F0E946E021E8BFA86E986E881B3
:10094000F9810484F585E02D60E0CE01DF91CF913F
:100950001F91FF90EF9019940F931F93CF93DF9304
:10096000EC01162F042F61E0413009F060E08B8527
:100970000E9440028C858F3F19F060E00E94400287
:10098000023079F08C8148E084FD0CC0612F70E06A
:1009900084E0759567958A95E1F744E0CE010E9461
:1009A000470444E0612FCE01DF91CF911F910F9159
:1009B0000C944704DC01ED91FC910684F785E02D51
:1009C00041E0199581E090E00895DC01ED91FC9102
:1009D0000684F785E02D40E01994CF93DF9300D093
:1009E00000D01F921F92CDB7DEB740910002509108
:1009F000010260910202709103024D835E836F8356
:100A0000788740910402509105026091060270912E
:100A1000070249835A836B837C832091E503821705
:100A200010F08FEF820F90E03091E6038C0F9D1F46
:100A3000FC01303181F4243071F4618160688EED05
:100A400093E028960FB6F894DEBF0FBECDBFDF91BE
:100A5000CF910C94E5046581F1CF0F931F93CF9351
:100A6000DF93EC01423018F08C8188608C834F83D7
:100A70006887222329F0413019F48C8184608C83AB
:100A800064E670E080E090E00E94DF026C8164FD2B
:100A90005CC0E881F9810684F785E02D42E063E0DF
:100AA000CE0119958BE496E40197F1F7E881F9817D
:100AB0000684F785E02D42E063E0CE01199503E559
:100AC00012E0C8010197F1F7E881F9810684F78502
:100AD000E02D42E063E0CE011995C8010197F1F7DE
:100AE000E881F9810684F785E02D42E062E0CE01DD
:100AF0001995C8010197F1F76C816062CE010E94DF
:100B0000E5048BEE90E00197F1F784E08D836CE0D3
:100B1000CE010E94E50461E0CE010E94E5048BE372
:100B20009FE10197F1F782E08E8366E0CE010E949B
:100B3000E504E881F9810484F585E02D6FEFCE01AD
:100B4000DF91CF911F910F9119946062CE010E94A5
:100B5000E5048BE496E40197F1F76C816062CE01C5
:100B60000E94E50403E512E0C8010197F1F76C81EA
:100B70006062CE010E94E504BCCF089508950895F7
:100B800090E080E008959C01FB01309761F0948132
:100B900090789A609483C901330FAA0BBB0B8083B2
:100BA0009183A283B3830895CF93DF93EC0188816F
:100BB0009981DC01ED91FC910190F081E02D199576
:100BC0002A813B81820F931F9B838A83DF91CF9180
:100BD0000895CF93DF93EC0188819981DC01ED9139
:100BE000FC910280F381E02D19952A813B81820FCF
:100BF000931F9B838A83DF91CF9108958F929F9259
:100C0000AF92BF92CF92DF92EF92FF920F931F931A
:100C1000CF93DF93CDB7DEB766970FB6F894DEBFFC
:100C20000FBECDBF6C018E01095E1F4F78018AE0B7
:100C3000882E912CA12CB12CCB01BA01A5019401D5
:100C40000E94D516942F852F605DF80162938F0165
:100C5000A901692F782F411551056105710561F7CB
:100C6000A7014E1B5F0BBF01C6010E94E9056696F6
:100C70000FB6F894DEBF0FBECDBFDF91CF911F91AD
:100C80000F91FF90EF90DF90CF90BF90AF909F902B
:100C90008F90089580339CF08A3324F08F3524F0B0
:100CA0008B3724F481E0089581344CF08B35D4F3F4
:100CB00093ED980F81E09230B0F380E008958B328D
:100CC000B9F7F0CF0F931F93CF93DF93EC018C858F
:100CD000811140C009851A852FB7F8948091390396
:100CE00090913A03A0913B03B0913C032FBFF801D0
:100CF00080879187A287B387D801ED91FC91028408
:100D0000F385E02DC801199597FF2AC02FB7F894F5
:100D10008091390390913A03A0913B03B0913C0339
:100D20002FBFF8014085518562857385841B950B23
:100D3000A60BB70B4481558166817781841795078F
:100D4000A607B707C8F28FEF9FEF97FD80E08B876C
:100D500081E08C878B85DF91CF911F910F91089552
:100D60009927F3CF1F93CF93DF93EC01162F0E94A7
:100D70006206811306C01C8681E0DF91CF911F912E
:100D8000089580E0FACFCF93DF93EC01CE010E946B
:100D900062068B303CF489304CF4882349F081E0C2
:100DA000888710C08D3011F08032C9F71C86EECFD5
:100DB000888581110AC081E090E0C15BDF4F998393
:100DC000888380E0DF91CF91089582E090E0F5CFB5
:100DD0000895FC0124813581A9014F5F5F4F868111
:100DE00097814817590748F482819381558344833A
:100DF000FC01E20FF31F608308950190F081E02D64
:100E000081E0808708959F92AF92BF92CF92DF9248
:100E1000EF92FF920F931F93CF93DF9300D01F9217
:100E20001F92CDB7DEB78C010E946206D82ED80182
:100E30001C961C92F12CE12C60EFC62EC8010E947A
:100E40006206F8011486D81609F4BDC0811119C0D4
:100E5000F801E15BFF4F82E090E09183808380E0C6
:100E60000F900F900F900F900F90DF91CF911F91E7
:100E70000F91FF90EF90DF90CF90BF90AF909F9039
:100E800008958C3509F09DC0C8010E946206882330
:100E9000F9F2EAE3F2E0853709F087C0D8011C9641
:100EA0001C9254E0952EB12CA12CC8010E94620620
:100EB000882371F281344CF48053803148F0F8017A
:100EC000E15BFF4F83E090E0C8CF8F7D8753F5CF84
:100ED00044E0AA0CBB1C4A95E1F7A82AF801148645
:100EE0009A949110E2CFC501985D8115944020F449
:100EF000750123E0F222A2CFC5019C5D81159440CB
:100F0000A8F4B3E0BB22B701762F6627770F770FDF
:100F10006A297B2990E080E001966038710581059F
:100F2000910540F4C8010E94E90688CFB50190E020
:100F300080E0F3CF1982262F2F7320682A8326E0C2
:100F400096958795779567952A95D1F760327105C3
:100F500080F4606C6B835E01E4E0AE0EB11CD501E1
:100F60006E915D01662309F469CFC8010E94E9060C
:100F7000F6CF262F2F7320682B8386E07695679512
:100F80008A95E1F76031710538F4606E6C835E011B
:100F9000F5E0AF0EB11CE3CF60686C83CD825E01DB
:100FA00026E0A20EB11CDBCF32969081992309F482
:100FB00086CF8913F9CF8181882309F480CFF80186
:100FC0001486682FAFCF0190F081E02D80858823B3
:100FD00031F0F801E15BFF4F84E090E03ECF81E02B
:100FE0003FCFCF93DF93DC01EB01EC81FD818A8160
:100FF0009B810896E817F90740F481E08887F0E0C4
:10100000E0E0CF01DF91CF9108953897FD83EC8325
:101010003097B9F31296CD91DC911397209791F008
:10102000CF018C1B9D0B23E0959587952A95E1F7C1
:101030008D831396FC93EE93129715821482178278
:101040001682DFCF1196FC93EE93F3CFEF92FF92CF
:101050000F931F93CF93DF937C01DC0112962D91A8
:101060003C911397ED91FC91AB01420F531FEF019F
:10107000C60FD71FC217D307A0F4888181110BC0F8
:10108000E901CF014C175D0751F00991DC011D9179
:10109000CD010117B9F381918111FDCFE8CF3097D0
:1010A00051F4620F731FCB010196F7019383828382
:1010B000DB011C92F901CF01DF91CF911F910F91BC
:1010C000FF90EF900895FC012581222339F0F8E08C
:1010D0002F0290011124820F931F089590E080E069
:1010E00008950E94CA17FB0101900020E9F731978B
:1010F000AF01461B570BDC01ED91FC910280F3819F
:10110000E02D19948F929F92AF92BF92CF92DF926F
:10111000EF92FF920F931F93CF93DF93CDB7DEB77C
:10112000A1970FB6F894DEBF0FBECDBF6C01990F2B
:10113000EE08FF08F7FE43C06DE28EED93E00E94DB
:10114000DA048C0122273327A9012C193D094E0905
:101150005F0919A2CE0181967C019AE0892E912C1B
:10116000A12CB12CCA01B901A50194010E94D51688
:10117000605DF70162937F0121153105410551053D
:1011800089F790E080E0309729F0BF018EED93E081
:101190000E947308800F911FA1960FB6F894DEBFCE
:1011A0000FBECDBFDF91CF911F910F91FF90EF90B8
:1011B000DF90CF90BF90AF909F908F900895A70140
:1011C000960119A28E010F5D1F4F8AE0C82ED12C07
:1011D000E12CF12CCA01B901A70196010E94D51694
:1011E000605DF80162938F012115310541055105BC
:1011F00089F790E080E0309779F2BF018EED93E0BF
:101200000E947308C9CFFB0101900020E9F73197D4
:10121000AF01461B570B0C94E9051F93CF93DF9347
:10122000EAE3F2E01281112379F032962181621310
:10123000F9CFEC016CE50E94D405612FCE01DF915E
:10124000CF911F910C94D4056111F9CF6BE472E03A
:10125000DF91CF911F910C9403092F923F924F92EF
:101260005F926F927F928F929F92AF92BF92CF9236
:10127000DF92EF92FF920F931F93CF93DF93CDB73F
:10128000DEB76C970FB6F894DEBF0FBECDBF8C01F2
:101290001B01DC0114968C9114978F77863009F42A
:1012A00092C268F58230A0F11296ED90FC901397EF
:1012B000CC901196DC90843008F056C2A701B6019C
:1012C000C1010E94E905F101828193816C960FB6FC
:1012D000F894DEBF0FBECDBFDF91CF911F910F916C
:1012E000FF90EF90DF90CF90BF90AF909F908F9046
:1012F0007F906F905F904F903F902F9008958C302B
:1013000069F160F4883009F459C28A3009F43FC2A7
:1013100062E572E0C1010E940309E5C1803209F46F
:10132000ECC18034A9F76BE5C1010E94D405F80136
:10133000008111810115110509F4DAC1B101C8015B
:101340000E942D09C8010E9463088C01892B09F4B1
:10135000CFC16CE2C1010E94D405ECCFF801C0807E
:10136000D180E280F380A7019601C701B6010E94F7
:1013700087158111CDCF20E030E0A901C701B6016A
:101380000E948715882379F0A7019601C701B6014D
:101390000E942A179B01AC01C701B6010E94871564
:1013A000882309F4B5CF20E030E0A901C701B601D8
:1013B0000E94871587FF08C06DE2C1010E94D40515
:1013C000F7FAF094F7F8F09420E836E948E15BE4A6
:1013D000C701B6010E94C51787FD81C074E1A72E21
:1013E000B12C00E210E0188E1F8AF501E853FD4F82
:1013F0002591359145915491C701B6010E94C517B9
:1014000087FD13C0F501E052FD4F259135914591BF
:101410005491C701B6010E94ED156B017C012F8923
:10142000388D200F311F388F2F8B1595079534E09D
:10143000A31AB1088CEFA8168FEFB806B1F65524A1
:101440005A9420E030E0A901C701B6010E94C517F7
:1014500018160CF04BC02CEA35EC47E257E3C701F5
:10146000B6010E94871518160CF440C0A52DB4E0F3
:10147000AB02C0011124B12CA12CFC01E057FE4F9E
:101480003F019C0128533D4F49013FEF531671F135
:10149000F301EA0DFB1D2591359145915491C7014A
:1014A000B6010E94871587FF13C0F401EA0DFB1DEA
:1014B0002591359145915491C701B6010E94ED15D2
:1014C0006B017C018F89988D801B910B988F8F8B7E
:1014D000159507955A9494E0A91AB108D6CF00E261
:1014E00010E055E0552E188E1F8AABCFC701B6010C
:1014F0000E9496174B015C012B013C0106E080E441
:1015000092E4AFE0B0E0898F9A8FAB8FBC8F102F41
:1015100001509AE04916510461047104C8F0698DC4
:101520007A8D8B8D9C8D2AE030E040E050E00E9467
:10153000D516298F3A8F4B8F5C8FC301B2012AE0F9
:1015400030E040E050E00E94D51629013A01DFCF9B
:10155000C501B4010E948C159B01AC01C701B60105
:101560000E9429176B017C01698D7A8D8B8D9C8D72
:101570000E948C159B01AC01C701B6010E94ED15BC
:101580002B013C010E9496176B017C010E948C1577
:101590009B01AC01C301B2010E9429179B01AC0160
:1015A0000E942A170E949617C60ED71EE81EF91E23
:1015B000898D9A8DAB8DBC8DC816D906EA06FB06BF
:1015C000D8F09FEF891A990AA90AB90AAF89B88D8C
:1015D000AB2B39F1BAE08B169104A104B10408F1E8
:1015E000EF89F88D3196F88FEF8BC12CD12C7601D5
:1015F000812C912C540183942AE0422E512C612C91
:10160000712CC701B601A30192010E94D516672B68
:10161000682B692B51F4111644F469017A011150B9
:10162000F0CFC12CD12C7601E7CFB501A401C101C7
:101630000E94FE05112371F14E01F1E18F0E911C04
:10164000012F54019AE0492E512C612C712C01502C
:1016500068F0C701B601A30192010E94D516605D32
:10166000D4016E934D0169017A01F1CF812F90E091
:10167000BC0160957095F501E81BF90B31978EE27E
:10168000808344275527461B570B6A0D7B1DC101DC
:101690000E94E905EF89F88DEF2B29F165E6C1017C
:1016A0000E94D4050F89188D17FF07C06DE2C10194
:1016B0000E94D405119501951109FE0177969F01AD
:1016C0008AE0E82EF12CC801B7010E940617805D60
:1016D00082938B01672BB9F7A9014E1B5F0BBF01EA
:1016E000C1010E94E905D10112968D919C91EECD28
:1016F0006DE5C1010E94D405F6CF6BE7C1010E94E0
:10170000D405F801008111810115110559F1D801A5
:101710001696CC9016971796DC9062E2C1010E9453
:10172000D4057601F70161917F01662321F0C101A3
:101730000E940D09F7CF62E2C1010E94D4056AE35D
:10174000C1010E94D405B101C8010E942D09C80140
:101750000E9463088C01892B29F06CE2C1010E9470
:10176000D405D2CF6DE7C5CF62E2C1010E94D40596
:101770008601E00EF11EE016F10639F0F8016191E4
:101780008F01C1010E940D09F6CF62E2B2CFCD9068
:10179000DD90ED90FC90B701A601F7FE0BC06DE265
:1017A000C1010E94D40544275527BA014C195D098F
:1017B0006E097F09C1010E94FE0585CD4D915D91A5
:1017C0006D917C91F7CF8C9167E572E0811102C039
:1017D0006CE572E0C1010E94030975CD0F931F9360
:1017E000CF93DF93D0E0C0E06115710591F08B01DC
:1017F000FC01C081D181209761F06E817F81C80199
:101800000E94CF17892B29F0CE010E946308EC01BA
:10181000F2CFCE01DF91CF911F910F9108954F929A
:101820005F926F927F92BF92CF92DF92EF92FF9280
:101830000F931F93CF93DF93EC018B01E42E0E9453
:10184000C306F82E811110C0F12C8F2DDF91CF919E
:101850001F910F91FF90EF90DF90CF90BF907F90FE
:101860006F905F904F900895CE010E94620687327C
:1018700009F42BC10CF5823209F427C1CE010E9474
:101880006206B82E6E01FFE0CF0ED11CE12C3601AE
:101890008B2D0E944A06882309F443C12FE3E216E8
:1018A00009F43FC11C86E394F601B1926F01CE01A9
:1018B0000E946206B82EECCF8B3509F44AC08B37F4
:1018C000E9F6F80184818078806284831182108235
:1018D00013821282EE2009F447C01C86CE010E94BA
:1018E000C306882309F4B0CF6DE7CE010E94B2068B
:1018F000D82E8111AACFCC24C394EA94E881F9812F
:10190000828193819B838A83848195812281338123
:10191000821B930B9F838E831D821C82892B09F46B
:10192000C086CE010E946206873209F45DC0823211
:1019300009F45AC0CE010E946206F82E0E944A069F
:10194000811159C0C15BDF4F83E090E099838883A8
:1019500050C0F80184818078806484831182108271
:1019600013821282E11007C0C15BDF4F85E090E077
:101970009983888369CF1C86CE010E94C306882381
:1019800009F462CF6DE5CE010E94B20681115DCFF0
:10199000EA946D857E85C8010E94F107009729F4BD
:1019A000C15BDF4F84E090E0E3CF4E2DBC01CE0160
:1019B0000E940F0C882309F447CFCE010E94C30672
:1019C000882309F441CF6DE5CE010E94B206811152
:1019D0003CCF6CE2CE010E94B2068111DACFC15B2E
:1019E000DF4F83E090E0C4CFCE010E940307811156
:1019F00019C0FD2C2ACF1C866F2DCE010E94E9064E
:101A0000CE010E946206F82E0E944A068111F3CF91
:101A1000E881F9818085882329F0C15BDF4F84E06C
:101A200090E094CFCE010E94C306882311F36AE3AD
:101A3000CE010E94B206882309F484CFEA81FB819B
:101A40008C819D81E80FF91F10826C807D806A81F6
:101A50007B81C8010E94EE0BBC01892BA1F4B3016C
:101A6000888199810E9426083C016D857E85C80188
:101A70000E94F107FC01892B81F2848180688483B4
:101A800077826682BF014E2DCE010E940F0C882303
:101A900009F4AFCFCE010E94C306882309F4A9CF71
:101AA0006DE7CE010E94B20681110DC06CE2CE013D
:101AB0000E94B206882309F445CFCE010E94C306D6
:101AC00081111CCF96CFD82E94CFE881F9818281E5
:101AD00093819B838A838481958122813381821BB8
:101AE000930B9F838E831D821C82892B11F481E0CE
:101AF0008087CE010E940307F82E882309F4A4CE24
:101B0000CC80DD80B601888199810E942608F80189
:101B1000248120782560248391838083D382C282AC
:101B200094CEFE01EE0DF11D17868F85843781F46A
:101B3000F801848180788660848381E08083F4E08A
:101B4000EF1609F482CEC15BDF4F82E090E010CF48
:101B5000863641F4F801848180788660848310821F
:101B6000F5E0EECF8E3621F424E0E212ECCF6DCE1C
:101B70008B32D9F1F3018D32D1F5FE017096BF2C75
:101B8000808190ED980F9A3018F08E3209F027CFAF
:101B90006F0160E070E0CB01F6012191A0ED4A2ECB
:101BA000420E39E0341528F16A3949E9740784078F
:101BB00049E1940740F5AAE0B0E09B01AC010E9426
:101BC000CA16512C712C612CA301920120953095DD
:101BD000409550952617370748075907A0F0640D20
:101BE000751D861D971D6F01D7CFFE017096B12C14
:101BF000C7CF211108C0BB2071F16130710581058B
:101C000050E89507A0F0E12CEAE04E2E512C612C13
:101C1000712C61157105F0E88F07910530F1A30172
:101C200092010E94D516CA01B901E394F2CFF801DE
:101C3000248120782A6024839B01AC01882799277E
:101C4000DC01821B930BA40BB50B80839183A283D1
:101C5000B383FB2CFACDF8012481207828602483FB
:101C60006083718382839383F0CDD601F601219145
:101C70006F0130ED320F3A3010F4E394F6CF2E328C
:101C8000F1F4FD013196DF0131962C9150EDD52E06
:101C9000D20E29E02D1598F06C3C3CEC73073CE02B
:101CA0008307910580F7AAE0B0E09B01AC010E9498
:101CB000CA166D0D711D811D911DEA94E4CF2C9102
:101CC0002F7D253409F08CC011962C9111972D325F
:101CD000D9F512967F2CFD0130E020E0CE2C0E2CA1
:101CE000000CDD084AE0542EDF01619040ED460D06
:101CF0004A3008F043C0529EA001539E500D11245B
:101D0000262D660C330B20533109240F351FA601F5
:101D1000420F531F473251053CF3F801848177206D
:101D2000D1F040E050E060E070E8B11003C040E066
:101D300050E0BA0180788C60F8018483408351833D
:101D400062837383F72C81CD2B3219F01196712C9D
:101D5000C2CF1296FCCF40E050E060E87FEFB110B8
:101D600004C040E050E060E87FE780788C60F801D4
:101D70008483408351836283738367CD772019F016
:101D80003195219531094C91411129CEE901CE0DB2
:101D9000D11DE7FCDA950E948C151C161D061CF55A
:101DA000E12CC0FF0CC024E0E29EF0011124E853B6
:101DB000FD4F25913591459154910E94ED15D59592
:101DC000C795E394209769F7B1109058F8012481E2
:101DD00020782C602483608371838283938335CD44
:101DE00030E020E0D0CFD195C195D109E12C2097EA
:101DF00059F3C0FF0CC044E0E49EF0011124E0520E
:101E0000FD4F25913591459154910E94ED15D59541
:101E1000C795E394ECCFEF92FF920F931F93CF936C
:101E2000DF93EC018C81982F9F7739F48078806262
:101E30008C83198218821B821A828C8185FF1DC0B7
:101E400061157105D1F07A018B01CE010E94EE0B74
:101E5000009761F4B701CE010E94F107009731F0BD
:101E6000FC0124812F77248317830683DF91CF9190
:101E70001F910F91FF90EF90089590E080E0F6CFD2
:101E8000CF92DF92EF92FF920F931F93CF93DF9346
:101E9000CDB7DEB7C650D2400FB6F894DEBF0FBE46
:101EA000CDBFCE010F969A8389839C838B838E014D
:101EB0000D5F1D4F1E830D8318870F8319861E86A5
:101EC0008FB7F894C0903903D0903A03E0903B0369
:101ED000F0903C038FBFAE014F5F5F4F62E672E050
:101EE000CE010A960E940B0FFC01892B41F09481D0
:101EF000907898609483C082D182E282F38286E3F4
:101F00000E949F027C01AE014F5F5F4F67E672E067
:101F1000CE010A960E940B0FBC01C7010E94C305A7
:101F20008DE10E9417027C01AE014F5F5F4F6BE6AF
:101F300072E0CE010A960E940B0FBC01C7010E94FD
:101F4000C3058FE10E9417027C01AE014F5F5F4F16
:101F500063E772E0CE010A960E940B0FBC01C70135
:101F60000E94C30583E20E9417027C01AE014F5F0D
:101F70005F4F6BE772E0CE010A960E940B0FBC0127
:101F8000C7010E94C30581E20E9417027C01AE01D5
:101F90004F5F5F4F63E872E0CE010A960E940B0F1D
:101FA000BC01C7010E94C30585E40E949F027C0119
:101FB000AE014F5F5F4F6BE872E0CE010A960E9460
:101FC0000B0FBC01C7010E94C30584E40E949F025D
:101FD0007C01AE014F5F5F4F60E972E0CE010A966F
:101FE0000E940B0FBC01C7010E94C30583E40E943D
:101FF0009F027C01AE014F5F5F4F65E972E0CE0149
:102000000A960E940B0FBC01C7010E94C30581E420
:102010000E949F027C01AE014F5F5F4F6AE972E050
:10202000CE010A960E940B0FBC01C7010E94C30596
:1020300080E40E949F027C01AE014F5F5F4F6FE919
:1020400072E0CE010A960E940B0FBC01C7010E94EC
:10205000C30585E30E9417027C01AE014F5F5F4F0D
:1020600064EA72E0CE010A960E940B0FBC01C70120
:102070000E94C30587E10E9417027C01AE014F5FF9
:102080005F4F6EEA72E0CE010A960E940B0FBC0110
:10209000C7010E94C30589E10E9417027C01AE01BD
:1020A0004F5F5F4F68EB72E0CE010A960E940B0F04
:1020B000BC01C7010E94C30581E493E0F80191834C
:1020C000808313821282B801CE010A960E942D09E4
:1020D00062EC72E081E493E00E9473081092360390
:1020E000CA5FDD4F0FB6F894DEBF0FBECDBFDF91E4
:1020F000CF911F910F91FF90EF90DF90CF900895B7
:102100000F931F93CF93DF93CDB7DEB7C356D24063
:102110000FB6F894DEBF0FBECDBFCE010F969A83E7
:1021200089839C838B8383E092E08C0F9D1F9E8329
:102130008D8398878F8319861E8682509240C45A59
:10214000DD4F99838883CC55D24028E0FE01E45AC4
:10215000FD4FDE01AC5ABD4F01900D922A95E1F77B
:1021600028E0FE01EC5AFD4FDE01AD5FBD4F01904E
:102170000D922A95E1F7C55FDD4F1882CB50D24012
:1021800021E433E0C45FDD4F39832883CC50D24053
:10219000C15FDD4F1882CF50D240C05FDD4F9983C1
:1021A0008883C051D240CE5ADD4F19821882C25561
:1021B000D2404AE0BE01665F7F4F8E5F9D4F0E9416
:1021C0000F0CCE5ADD4F08811981C255D24001153E
:1021D000110529F5C25FDD4F8881CE50D24088239A
:1021E000F1F08E8583FF1BC01092370303E010E0EF
:1021F00065EC72E081E493E00E947308000F111F08
:10220000F801E85FFD4F6081718161157105D9F5B5
:1022100062EC72E081E493E00E94730808C01092BF
:1022200037030115110521F78E8585FD0CC0CD59A9
:10223000DD4F0FB6F894DEBF0FBECDBFDF91CF915B
:102240001F910F9108956CED72E0CE010A960E94E5
:10225000EE0B009761F3FC0184818F7741F36CED05
:1022600072E0CE010A960E94EE0BFC01892B81F1EF
:1022700094819F77983019F158F4992349F1963059
:10228000C1F011E017C081E493E00E947308C0CF51
:102290009A30A9F09C30A9F711E020E030E0A901C4
:1022A00060817181828193810E948715811102C0B2
:1022B0000FC01081612F83E30E944002B8CF11E06C
:1022C00080819181A281B381892B8A2B8B2B91F7FD
:1022D00010E0F0CF1F920F920FB60F9211242F93A0
:1022E0003F938F939F93AF93BF93809139039091C6
:1022F0003A03A0913B03B0913C033091380323E0B3
:10230000230F2D3758F50196A11DB11D20933803D9
:102310008093390390933A03A0933B03B0933C031B
:1023200080913D0390913E03A0913F03B091400303
:102330000196A11DB11D80933D0390933E03A09390
:102340003F03B0934003BF91AF919F918F913F9115
:102350002F910F900FBE0F901F90189526E8230F16
:102360000296A11DB11DD2CF1F920F920FB60F92F0
:1023700011240BB60F922F933F934F935F936F935C
:102380007F938F939F93AF93BF93EF93FF9381E4DA
:1023900093E00E948503FF91EF91BF91AF919F91D0
:1023A0008F917F916F915F914F913F912F910F90FE
:1023B0000BBE0F900FBE0F901F9018951F920F929B
:1023C0000FB60F9211240BB60F922F938F939F93FA
:1023D000EF93FF93E0915103F09152038081E091DC
:1023E0005703F091580382FD1DC0908180915A03DC
:1023F0008F5F8F7320915B03821741F0E0915A0346
:10240000F0E0EF5BFC4F958F80935A03FF91EF91C3
:102410009F918F912F910F900BBE0F900FBE0F9039
:102420001F9018958081F2CFCF93DF9310924403D1
:102430001092430388EE93E0A0E0B0E08093450360
:1024400090934603A0934703B093480388E192E03A
:10245000909342038093410385EC90E090934E0368
:1024600080934D0384EC90E09093500380934F034E
:1024700080EC90E0909352038093510381EC90E0C4
:10248000909354038093530382EC90E0909356030F
:102490008093550386EC90E0909358038093570304
:1024A00010925A0310925B0310925C0310925D032A
:1024B0001092E1031092E0038AE292E09093DF032E
:1024C0008093DE0386E18093E9038FEF8093EA0334
:1024D00088E18093EB038AE18093EC038CE18093A5
:1024E000ED038EE18093EE0380E28093EF03109280
:1024F000F0031092F1031092F2031092F303CCEE6A
:10250000D3E061E089910E946E0283E0C03FD8076A
:10251000C1F761E08091E9030E946E028091EA03B5
:102520008F3F19F061E00E946E0261E08091EB0341
:102530000E946E021092E20360E08091E9030E9423
:10254000400260E08091EB030E9440028091EA0328
:102550008F3F19F060E00E9440028FEF8093F403F8
:102560001092E8031092E703DF91CF9108957894D9
:1025700084B5826084BD84B5816084BD85B5826088
:1025800085BD85B5816085BD80916E008160809339
:102590006E001092810080918100826080938100A2
:1025A00080918100816080938100809180008160B2
:1025B000809380008091B10084608093B10080910D
:1025C000B00081608093B000809191008260809320
:1025D00091008091910081608093910080919000A2
:1025E0008160809390008091A10082608093A1001F
:1025F0008091A10081608093A1008091A000816002
:102600008093A000809121018260809321018091BC
:10261000210181608093210180912001816080935C
:10262000200180917A00846080937A0080917A0002
:10263000826080937A0080917A00816080937A0032
:1026400080917A00806880937A001092C100E091B6
:102650005103F091520382E08083E0914D03F091A9
:102660004E031082E0914F03F091500380E180838C
:1026700010925903E0915503F091560386E0808350
:10268000E0915303F0915403808180618083E09155
:102690005303F0915403808188608083E091530359
:1026A000F0915403808180688083E0915303F0911E
:1026B000540380818F7D808361E08CE00E946E02F4
:1026C00061E08BE00E946E0261E08AE00E946E028F
:1026D00061E089E00E946E0261E088E00E946E0283
:1026E00061E087E00E946E0261E086E00E946E0277
:1026F00061E085E00E946E0261E084E00E946E026B
:1027000061E083E00E946E0261E083E30E946E025A
:1027100061E081E30E946E0261E08FE20E946E023E
:1027200061E08DE20E946E0260E085E40E946E022C
:1027300060E084E40E946E0260E083E40E946E0226
:1027400061E08DE00E946E0260E08DE10E946E0209
:1027500060E08FE10E946E0260E083E20E946E0200
:1027600060E081E20E946E0261E08DE10E94400221
:1027700061E08FE10E94400261E083E20E9440023A
:1027800061E081E20E94400260E087E10E946E0207
:1027900060E089E10E946E0261E087E10E944002F0
:1027A00061E089E10E94400260E081E40E946E02E3
:1027B00060E080E40E946E0260E085E30E946E02A9
:1027C00020E042E060E18EED93E00E942D0564E69A
:1027D00070E080E090E00E94DF02CBE3DFE188EE72
:1027E000C82E83E0D82EE12CF12C80E00E94ED046D
:1027F00060EE72E08EED93E00E9473088FE30E941A
:102800009F020E94820881E00E94ED046BEE72E05C
:102810008EED93E00E94730883E20E9417020E94EB
:1028200082086EEE72E08EED93E00E94730881E202
:102830000E9417020E94820862EF72E08EED93E020
:102840000E9473088DE10E9417020E94820866EFC1
:1028500072E08EED93E00E9473088FE10E941702F0
:102860000E94820863E070E080E090E00E94DF0256
:1028700061E08EED93E00E94E504CE010197F1F74F
:102880008FE30E949F022AE030E0DC010E942217C1
:10289000A70196010E94AB162B3031054105510569
:1028A00008F03AC0F9018827E75AFB4E8F4F0C9485
:1028B0001A176414BF14C114C714D114DF14F1140F
:1028C000071521153F15611561E08CE00E9440025B
:1028D00061E08BE00E94400261E08AE00E944002D9
:1028E00061E089E00E94400261E088E00E944002CD
:1028F00061E087E00E94400261E086E00E944002C1
:1029000061E085E00E94400261E084E00E944002B4
:1029100061E083E00E9440028DE10E94170260E0C6
:10292000892B09F061E08FE20E9440028FE10E9452
:10293000170260E0892B09F061E081E30E94400208
:1029400083E20E94170260E0892B09F061E083E3D3
:102950000E94400281E20E94170260E0892B09F088
:1029600061E08DE20E94400280913703882321F0CC
:102970000E9480100E94400F0E94180436CF60E031
:10298000A4CF60E08CE00E94400260E0A2CF60E053
:102990008CE00E94400260E08BE00E94400260E018
:1029A0009CCF60E08CE00E94400260E08BE00E94DF
:1029B000400260E08AE00E94400260E092CF60E066
:1029C0008CE00E94400260E08BE00E94400260E0E8
:1029D0008AE00E94400260E089E00E94400260E0DC
:1029E00084CF60E08CE00E94400260E08BE00E94B7
:1029F000400260E08AE00E94400260E089E00E94BC
:102A0000400260E088E00E94400260E072CF60E037
:102A10008CE00E94400260E08BE00E94400260E097
:102A20008AE00E94400260E089E00E94400260E08B
:102A300088E00E94400260E087E00E94400260E07F
:102A40005CCF60E08CE00E94400260E08BE00E947E
:102A5000400260E08AE00E94400260E089E00E945B
:102A6000400260E088E00E94400260E087E00E944F
:102A7000400260E086E00E94400260E042CF60E0F9
:102A80008CE00E94400260E08BE00E94400260E027
:102A90008AE00E94400260E089E00E94400260E01B
:102AA00088E00E94400260E087E00E94400260E00F
:102AB00086E00E94400260E085E00E94400260E003
:102AC00024CF60E08CE00E94400260E08BE00E9436
:102AD000400260E08AE00E94400260E089E00E94DB
:102AE000400260E088E00E94400260E087E00E94CF
:102AF000400260E086E00E94400260E085E00E94C3
:102B0000400260E084E00E94400260E002CF0E9448
:102B1000C91508F481E00895E89409C097FB3EF4D4
:102B200090958095709561957F4F8F4F9F4F99231A
:102B3000A9F0F92F96E9BB279395F6958795779598
:102B40006795B795F111F8CFFAF4BB0F11F460FF58
:102B50001BC06F5F7F4F8F4F9F4F16C0882311F0B0
:102B600096E911C0772321F09EE8872F762F05C0C4
:102B7000662371F096E8862F70E060E02AF09A955F
:102B8000660F771F881FDAF7880F9695879597F954
:102B90000895990F0008550FAA0BE0E8FEEF1616EE
:102BA0001706E807F907C0F012161306E407F50741
:102BB00098F0621B730B840B950B39F40A2661F0B5
:102BC000232B242B252B21F408950A2609F4A14058
:102BD000A6958FEF811D811D08950E9400160C940B
:102BE00071160E94631638F00E946A1620F0952331
:102BF00011F00C945A160C94601611240C94A5161E
:102C00000E94821670F3959FC1F3950F50E0551FF7
:102C1000629FF001729FBB27F00DB11D639FAA2731
:102C2000F00DB11DAA1F649F6627B00DA11D661F80
:102C3000829F2227B00DA11D621F739FB00DA11DA1
:102C4000621F839FA00D611D221F749F3327A00D5B
:102C5000611D231F849F600D211D822F762F6A2FF7
:102C600011249F5750409AF0F1F088234AF0EE0F5C
:102C7000FF1FBB1F661F771F881F91505040A9F789
:102C80009E3F510580F00C945A160C94A5165F3F98
:102C9000E4F3983ED4F3869577956795B795F795C5
:102CA000E7959F5FC1F7FE2B880F911D969587953D
:102CB00097F9089597F99F6780E870E060E00895BC
:102CC0009FEF80EC089500240A9416161706180644
:102CD0000906089500240A94121613061406050620
:102CE0000895092E0394000C11F4882352F0BB0FB1
:102CF00040F4BF2B11F460FF04C06F5F7F4F8F4F14
:102D00009F4F089557FD9058440F551F59F05F3F4E
:102D100071F04795880F97FB991F61F09F3F79F0FD
:102D200087950895121613061406551FF2CF46957F
:102D3000F1DF08C0161617061806991FF1CF869501
:102D40007105610508940895E894BB2766277727E5
:102D5000CB0197F90895052E97FB1EF400940E946D
:102D6000C21657FD07D00E94D51607FC03D04EF4BB
:102D70000C94C21650954095309521953F4F4F4F7A
:102D80005F4F089590958095709561957F4F8F4F17
:102D90009F4F08950E94F716A59F900DB49F900D28
:102DA000A49F800D911D11240895A1E21A2EAA1B43
:102DB000BB1BFD010DC0AA1FBB1FEE1FFF1FA217EB
:102DC000B307E407F50720F0A21BB30BE40BF50BE8
:102DD000661F771F881F991F1A9469F76095709571
:102DE000809590959B01AC01BD01CF010895A29FF4
:102DF000B001B39FC001A39F700D811D1124911DCF
:102E0000B29F700D811D1124911D0895AA1BBB1B3B
:102E100051E107C0AA1FBB1FA617B70710F0A61BDA
:102E2000B70B881F991F5A95A9F780959095BC01FB
:102E3000CD010895EE0FFF1F881F8BBF0790F691FD
:102E4000E02D19940E94F716B7FF0895821B930B8B
:102E500008955058BB27AA270E9441170C94711659
:102E60000E94631638F00E946A1620F039F49F3FE2
:102E700019F426F40C9460160EF4E095E7FB0C941C
:102E80005A16E92F0E94821658F3BA176207730781
:102E90008407950720F079F4A6F50C94A4160EF497
:102EA000E0950B2EBA2FA02D0B01B90190010C015A
:102EB000CA01A0011124FF27591B99F0593F50F472
:102EC000503E68F11A16F040A22F232F342F4427CA
:102ED000585FF3CF469537952795A795F0405395C2
:102EE000C9F77EF41F16BA0B620B730B840BBAF092
:102EF0009150A1F0FF0FBB1F661F771F881FC2F7FD
:102F00000EC0BA0F621F731F841F48F48795779510
:102F10006795B795F7959E3F08F0B0CF9395880FCA
:102F200008F09927EE0F9795879508950E948A16C5
:102F300088F09F5798F0B92F9927B751B0F0E1F07A
:102F4000660F771F881F991F1AF0BA95C9F714C02A
:102F5000B13091F00E94A416B1E008950C94A4162B
:102F6000672F782F8827B85F39F0B93FCCF3869563
:102F700077956795B395D9F73EF4909580957095C0
:102F800061957F4F8F4F9F4F08950E94C91508F498
:102F90008FEF089581E090E0F8940C94D817FB012E
:102FA000DC018D91019080190110D9F3990B0895DE
:042FB000F894FFCFC3
:102FB4000040145400401050FA02FD0208031803A4
:102FC40025032E0300000000A70311033E03F403AE
:102FD4006F034D03610300000000DA041103C00510
:102FE400BF052D0590047D04AC042F2F22225C5CC8
:102FF4006208660C6E0A720D7409005C753030301C
:1030040030006E756C6C00747275650066616C736B
:10301400650074696D6500706F7400626F75746F1C
:103024006E3100626F75746F6E3200626F75746F0B
:103034006E3300626F75746F6E34004163635800C1
:1030440041636359004163635A004A6F7958004AE7
:103054006F7959004A6F79426F75746F6E004761DA
:103064006368657474653100476163686574746589
:1030740032000D0A00646573657269616C697A6572
:103084002829206661696C65643A20006C656400D7
:10309400506F742076616C75653A00413A002042A5
:1030A4003A0020593A0020583A004F6B00456D70A1
:1030B4007479496E70757400496E636F6D706C65D8
:1030C4007465496E70757400496E76616C69644903
:1030D4006E707574004E6F4D656D6F727900546F2C
:0630E4006F4465657000F9
:00000001FF
