:100000000C9481010C94B2010C94B2010C94B201D5
:100010000C94B2010C94B2010C94B2010C94B20194
:100020000C94B2010C94B2010C94B2010C94B20184
:100030000C94B2010C94B2010C94B2010C94B20174
:100040000C94B2010C94B2010C94B2010C94B20164
:100050000C94C2120C94B2010C94B2010C941812BC
:100060000C94B2010C948C120C9462120C94B20198
:100070000C94B2010C94B2010C94B2010C94B20134
:100080000C94B2010C94B2010C94B2010C94B20124
:100090000C94B2010C94B2010C94B2010C94B20114
:1000A0000C94B2010C94B2010C94B2010C94B20104
:1000B0000C94B2010C94B2010C94B2010C94B201F4
:1000C0000C94B2010C94B2010C94B2010C94B201E4
:1000D0000C94B2010C94B2010C94B2010C94B201D4
:1000E0000C94B2010C94ED010C942F050C94C215E4
:1000F0000C9448040C9492040C94F5030C94401650
:100100000C94AE040C94D2010C944E030C94120384
:100110000C9409020C94EB060C94C1050C94F101AB
:100120000C94D2150C94DC010C94C0150C947F0433
:100130000C94C8150C94E7010C9465150C940816E2
:100140000C94FF010C94E0010C940D020C947003CC
:100150000C94D8010C9412020C943F030C940502E9
:100160000C94A8030C94F2150C94E4010C94E01583
:100170000C94DC040C94FB010C9417020C941302F5
:100180000C94C2050C94ED120C9462030C9422168C
:100190000C94F7010C9462160000803FCDCCCC3D4E
:1001A0006F12833A95BFD6337D1D9026B3CE010CD6
:1001B00000002100240027002A002D003000330019
:1001C00001010000040107010A01000022002500CE
:1001D00028002B002E003100340002010000050130
:1001E00008010B01000020002300260029002C003C
:1001F0002F0032000001000003010601090105057E
:100200000505070508080808020202020A0A08088C
:1002100004040404010101010101010103030303BA
:1002200003030303040707070C0C0C0C0C0C0C0C49
:100230000202020206060606060606060B0B0B0B5A
:100240000B0B0B0B0102102020080810204010207F
:10025000408002010201080402010102040810208A
:100260004080804020100804020180040201804088
:1002700020100804020108040201010204081020F1
:100280004080010204081020408000000A0B02098F
:100290000C0D0E0807030401000000000000000020
:1002A000000000000000000000000000000000004E
:1002B000000000000000121110000000000000000B
:1002C000000000000000000000000000000000002E
:1002D000000020410000C84200401C4620BCBE4C2B
:1002E000CA1B0E5AAEC59D74CDCCCC3D0AD7233C5B
:1002F00017B7D13877CC2B329595E6241FB14F0A2A
:10030000ED1211241FBECFEFD1E2DEBFCDBF00E062
:100310000CBF13E0A0E0B2E0E4ECF3E300E00BBFBD
:1003200002C007900D92AA34B107D9F724E0AAE4DD
:10033000B3E001C01D92A131B207E1F711E0C1E8BD
:10034000D1E000E006C021970109802FFE010E9444
:10035000C718C038D10780E00807A9F70E9490139A
:100360000C94E0190C9400008150823108F05AC0BE
:10037000E82FF0E08827E054FE4F8F4F0C94C71809
:10038000E001E401D201D801DC011202E701ED0134
:10039000F101F701FB01FF010502090212020D0242
:1003A00013021702809180008F7780938000089558
:1003B000809180008F7DF9CF80918000877FF5CF7D
:1003C00084B58F7784BD089584B58F7DFBCF8091F0
:1003D000B0008F778093B00008958091B0008F7D3A
:1003E000F9CF809190008F7780939000089580914D
:1003F00090008F7DF9CF80919000877FF5CF80911D
:10040000A0008F778093A00008958091A0008F7D39
:10041000F9CF8091A000877FF5CF809120018F7761
:10042000809320010895809120018F7DF9CF8091E4
:100430002001877FF5CFCF93DF93282F30E0F9019C
:10044000E657FD4F8491F901EC5BFD4FD491F90122
:10045000E250FE4FC491CC23A1F081110E94B4015F
:10046000EC2FF0E0EE0FFF1FEC51FE4FA591B49181
:10047000EC91ED2381E090E009F480E0DF91CF91F1
:10048000089580E090E0FACF1F93CF93DF93282F59
:1004900030E0F901E657FD4F8491F901EC5BFD4F27
:1004A000D491F901E250FE4FC491CC23A9F0162F4C
:1004B00081110E94B401EC2FF0E0EE0FFF1FE65314
:1004C000FE4FA591B4918FB7F894EC91111108C02B
:1004D000D095DE23DC938FBFDF91CF911F910895DC
:1004E000DE2BF8CFCF93DF9390E0FC01EC5BFD4F68
:1004F000249182509E4FFC0184918823D1F090E09A
:10050000880F991FFC01E055FE4FA591B491FC01A5
:10051000E653FE4FC591D49161110EC09FB7F89478
:100520008C91E22FE0958E238C932881E223E8833F
:100530009FBFDF91CF9108958FB7F894EC91E22B94
:10054000EC938FBFF6CF90917B00986090937B00E7
:1005500086538770806480937C0080917A008064E9
:1005600080937A0080917A0086FDFCCF809178009C
:100570009091790008953FB7F89480915903909134
:100580005A03A0915B03B0915C0326B5A89B05C0FC
:100590002F3F19F00196A11DB11D3FBFBA2FA92F02
:1005A000982F8827BC01CD01620F711D811D911DFF
:1005B00042E0660F771F881F991F4A95D1F708956B
:1005C0008F929F92AF92BF92CF92DF92EF92FF9263
:1005D0004B015C010E94BB026B017C010E94BB02CB
:1005E0006C197D098E099F09683E7340810591054C
:1005F000A8F321E0821A9108A108B10888EEC80E7C
:1006000083E0D81EE11CF11C81149104A104B10403
:1006100029F7FF90EF90DF90CF90BF90AF909F9021
:100620008F900895AF92BF92CF92DF92EF92FF9298
:100630000F931F93CF93DF936C017B018B01040F0A
:10064000151FEB015E01AE18BF08C017D10759F0A6
:100650006991D601ED91FC910190F081E02DC601E8
:100660001995892B79F7C501DF91CF911F910F91D2
:10067000FF90EF90DF90CF90BF90AF900895FC0176
:10068000538D448D252F30E0842F90E0821B930BF7
:10069000541710F0CF96089501970895FC01918D9D
:1006A000828D981761F0A28DAE0FBF2FB11D5D96A0
:1006B0008C91928D9F5F9F73928F90E008958FEF42
:1006C0009FEF0895FC01918D828D981731F0828DF6
:1006D000E80FF11D858D90E008958FEF9FEF08954D
:1006E000FC01918D228D892F90E0805C9F4F821BB1
:1006F00091098F73992708958DE593E00E94700307
:1007000021E0892B09F420E0822F0895FC01A48DBB
:10071000A80FB92FB11DA35ABF4F2C91848D90E023
:1007200001968F739927848FA689B7892C93A08906
:10073000B1898C91837080648C93938D848D981390
:1007400006C00288F389E02D80818F7D8083089523
:10075000EF92FF920F931F93CF93DF93EC0181E011
:10076000888F9B8D8C8D98131AC0E889F9898081B8
:1007700085FF15C09FB7F894EE89FF896083E889EB
:10078000F98980818370806480839FBF81E090E0DD
:10079000DF91CF911F910F91FF90EF900895F62E6A
:1007A0000B8D10E00F5F1F4F0F731127E02E8C8D04
:1007B0008E110CC00FB607FCFACFE889F989808149
:1007C00085FFF5CFCE010E948603F1CFEB8DEC0FB4
:1007D000FD2FF11DE35AFF4FF0829FB7F8940B8F66
:1007E000EA89FB8980818062CFCFCF93DF93EC01D0
:1007F000888D8823B9F0AA89BB89E889F9898C9109
:1008000085FD03C0808186FD0DC00FB607FCF7CFC4
:100810008C9185FFF2CF808185FFEDCFCE010E94C4
:100820008603E9CFDF91CF91089581E08093530350
:1008300008950E947C03882319F081E0809353037C
:1008400080E090E0892B49F080E090E0892B29F04E
:100850000E94000081110E94000080E090E0892B3E
:1008600049F080E090E0892B29F00E94000081117E
:100870000E94000080E090E0892B49F080E090E049
:10088000892B29F00E94000081110C94000008952A
:100890000895BF92CF92DF92EF92FF920F931F9332
:1008A000CF93DF938C01B42E6C018EE0C80ED11C67
:1008B000D0E0C0E0E62EF12CB7010C2E02C07595F9
:1008C00067950A94E2F76170F60181916F010E94C9
:1008D00044022196CB1580F361E0F80185850E94E2
:1008E000440260E0F8018585DF91CF911F910F915F
:1008F000FF90EF90DF90CF90BF900C944402FC01EA
:1009000086898F3F71F021853285662329F0232B5C
:1009100031F461E00C94440221303105D1F360E000
:10092000F9CF0895EF92FF921F93CF93DF93EC01DD
:10093000162F7A0161E0812F0E9472021E8BFA86C7
:10094000E986E881F9810484F585E02D60E0CE0137
:10095000DF91CF911F91FF90EF9019940F931F9308
:10096000CF93DF93EC01162F042F61E0413009F0A3
:1009700060E08B850E9444028C858F3F19F060E017
:100980000E944402023079F08C8148E084FD0CC062
:10099000612F70E084E0759567958A95E1F744E0F2
:1009A000CE010E94490444E0612FCE01DF91CF9136
:1009B0001F910F910C944904DC01ED91FC91068488
:1009C000F785E02D41E0199581E090E00895DC0184
:1009D000ED91FC910684F785E02D40E01994CF93CA
:1009E000DF9300D000D01F921F92CDB7DEB74091A9
:1009F00006025091070260910802709109024D832E
:100A00005E836F83788740910A0250910B02609158
:100A10000C0270910D0249835A836B837C83209171
:100A20000104821710F08FEF820F90E030910204E2
:100A30008C0F9D1FFC01303181F4243071F46181F1
:100A400060688AEF93E028960FB6F894DEBF0FBE79
:100A5000CDBFDF91CF910C94E7046581F1CF0F9367
:100A60001F93CF93DF93EC01423018F08C818860A4
:100A70008C834F836887222329F0413019F48C81BD
:100A800084608C8364E670E080E090E00E94E00285
:100A90006C8164FD5CC0E881F9810684F785E02DF6
:100AA00042E063E0CE0119958BE496E40197F1F7FB
:100AB000E881F9810684F785E02D42E063E0CE010C
:100AC000199503E512E0C8010197F1F7E881F98172
:100AD0000684F785E02D42E063E0CE011995C80158
:100AE0000197F1F7E881F9810684F785E02D42E06E
:100AF00062E0CE011995C8010197F1F76C8160623F
:100B0000CE010E94E7048BEE90E00197F1F784E0BC
:100B10008D836CE0CE010E94E70461E0CE010E946B
:100B2000E7048BE39FE10197F1F782E08E8366E0B3
:100B3000CE010E94E704E881F9810484F585E02D67
:100B40006FEFCE01DF91CF911F910F9119946062E9
:100B5000CE010E94E7048BE496E40197F1F76C81E3
:100B60006062CE010E94E70403E512E0C80101972C
:100B7000F1F76C816062CE010E94E704BCCF08955A
:100B80000895089590E080E008959C01FB0130975E
:100B900061F0948190789A609483C901330FAA0B15
:100BA000BB0B80839183A283B3830895CF93DF939C
:100BB000EC0188819981DC01ED91FC910190F0813B
:100BC000E02D19952A813B81820F931F9B838A8395
:100BD000DF91CF910895CF93DF93EC0188819981C4
:100BE000DC01ED91FC910280F381E02D19952A81C1
:100BF0003B81820F931F9B838A83DF91CF9108955E
:100C00008F929F92AF92BF92CF92DF92EF92FF921C
:100C10000F931F93CF93DF93CDB7DEB766970FB6D1
:100C2000F894DEBF0FBECDBF6C018E01095E1F4F71
:100C300078018AE0882E912CA12CB12CCB01BA012D
:100C4000A50194010E948218942F852F605DF80100
:100C500062938F01A901692F782F41155105610514
:100C6000710561F7A7014E1B5F0BBF01C6010E9412
:100C7000EB0566960FB6F894DEBF0FBECDBFDF91D1
:100C8000CF911F910F91FF90EF90DF90CF90BF9089
:100C9000AF909F908F90089580339CF08A3324F01A
:100CA0008F3524F08B3724F481E0089581344CF0A3
:100CB0008B35D4F393ED980F81E09230B0F380E060
:100CC00008958B32B9F7F0CF0F931F93CF93DF9333
:100CD000EC018C85811140C009851A852FB7F894E5
:100CE0008091550390915603A0915703B0915803FA
:100CF0002FBFF80180879187A287B387D801ED9134
:100D0000FC910284F385E02DC801199597FF2AC054
:100D10002FB7F8948091550390915603A0915703F3
:100D2000B09158032FBFF8014085518562857385C6
:100D3000841B950BA60BB70B448155816681778187
:100D400084179507A607B707C8F28FEF9FEF97FDA7
:100D500080E08B8781E08C878B85DF91CF911F911D
:100D60000F9108959927F3CF1F93CF93DF93EC0151
:100D7000162F0E946406811306C01C8681E0DF9155
:100D8000CF911F91089580E0FACFCF93DF93EC01CC
:100D9000CE010E9464068B303CF489304CF48823E9
:100DA00049F081E0888710C08D3011F08032C9F79A
:100DB0001C86EECF888581110AC081E090E0C15B7E
:100DC000DF4F9983888380E0DF91CF91089582E09F
:100DD00090E0F5CF08950F931F938EE30E94A30236
:100DE000813293405CF12FB7F89480915503909134
:100DF0005603A0915703B09158032FBF40914F0362
:100E00005091500360915103709152038C019D01E8
:100E1000041B150B260B370BB901A80140934B039C
:100E200050934C0360934D0370934E0380934F0394
:100E300090935003A0935103B09352031F910F91CD
:100E40000895FC0124813581A9014F5F5F4F8681A0
:100E500097814817590748F48281938155834483C9
:100E6000FC01E20FF31F608308950190F081E02DF3
:100E700081E0808708959F92AF92BF92CF92DF92D8
:100E8000EF92FF920F931F93CF93DF9300D01F92A7
:100E90001F92CDB7DEB78C010E946406D82ED80110
:100EA0001C961C92F12CE12C60EFC62EC8010E940A
:100EB0006406F8011486D81609F4BDC0811119C062
:100EC000F801E15BFF4F82E090E09183808380E056
:100ED0000F900F900F900F900F90DF91CF911F9177
:100EE0000F91FF90EF90DF90CF90BF90AF909F90C9
:100EF00008958C3509F09DC0C8010E9464068823BE
:100F0000F9F2E0E4F2E0853709F087C0D8011C96D9
:100F10001C9254E0952EB12CA12CC8010E946406AD
:100F2000882371F281344CF48053803148F0F80109
:100F3000E15BFF4F83E090E0C8CF8F7D8753F5CF13
:100F400044E0AA0CBB1C4A95E1F7A82AF8011486D4
:100F50009A949110E2CFC501985D8115944020F4D8
:100F6000750123E0F222A2CFC5019C5D811594405A
:100F7000A8F4B3E0BB22B701762F6627770F770F6F
:100F80006A297B2990E080E001966038710581052F
:100F9000910540F4C8010E94210788CFB50190E077
:100FA00080E0F3CF1982262F2F7320682A8326E052
:100FB00096958795779567952A95D1F76032710553
:100FC00080F4606C6B835E01E4E0AE0EB11CD50171
:100FD0006E915D01662309F469CFC8010E94210763
:100FE000F6CF262F2F7320682B8386E076956795A2
:100FF0008A95E1F76031710538F4606E6C835E01AB
:10100000F5E0AF0EB11CE3CF60686C83CD825E016A
:1010100026E0A20EB11CDBCF32969081992309F411
:1010200086CF8913F9CF8181882309F480CFF80115
:101030001486682FAFCF0190F081E02D8085882342
:1010400031F0F801E15BFF4F84E090E03ECF81E0BA
:101050003FCFCF93DF93DC01EB01EC81FD818A81EF
:101060009B810896E817F90740F481E08887F0E053
:10107000E0E0CF01DF91CF9108953897FD83EC83B5
:101080003097B9F31296CD91DC911397209791F098
:10109000CF018C1B9D0B23E0959587952A95E1F751
:1010A0008D831396FC93EE93129715821482178208
:1010B0001682DFCF1196FC93EE93F3CFEF92FF925F
:1010C0000F931F93CF93DF937C01DC0112962D9138
:1010D0003C911397ED91FC91AB01420F531FEF012F
:1010E000C60FD71FC217D307A0F4888181110BC088
:1010F000E901CF014C175D0751F00991DC011D9109
:10110000CD010117B9F381918111FDCFE8CF30975F
:1011100051F4620F731FCB010196F7019383828311
:10112000DB011C92F901CF01DF91CF911F910F914B
:10113000FF90EF900895FC012581222339F0F8E01B
:101140002F0290011124820F931F089590E080E0F8
:1011500008950E94D219FB0101900020E9F7319710
:10116000AF01461B570BDC01ED91FC910280F3812E
:10117000E02D19948F929F92AF92BF92CF92DF92FF
:10118000EF92FF920F931F93CF93DF93CDB7DEB70C
:10119000A1970FB6F894DEBF0FBECDBF6C01990FBB
:1011A000EE08FF08F7FE43C06DE28AEF93E00E946D
:1011B000DC048C0122273327A9012C193D094E0993
:1011C0005F0919A2CE0181967C019AE0892E912CAB
:1011D000A12CB12CCA01B901A50194010E94821869
:1011E000605DF70162937F012115310541055105CD
:1011F00089F790E080E0309729F0BF018AEF93E013
:101200000E94AB08800F911FA1960FB6F894DEBF25
:101210000FBECDBFDF91CF911F910F91FF90EF9047
:10122000DF90CF90BF90AF909F908F900895A701CF
:10123000960119A28E010F5D1F4F8AE0C82ED12C96
:10124000E12CF12CCA01B901A70196010E94821874
:10125000605DF80162938F0121153105410551054B
:1012600089F790E080E0309779F2BF018AEF93E050
:101270000E94AB08C9CFFB0101900020E9F731972C
:10128000AF01461B570B0C94EB051F93CF93DF93D5
:10129000E0E4F2E01281112379F0329621816213A9
:1012A000F9CFEC016CE50E94D605612FCE01DF91EC
:1012B000CF911F910C94D6056111F9CF61E572E0D1
:1012C000DF91CF911F910C943B092F923F924F9247
:1012D0005F926F927F928F929F92AF92BF92CF92C6
:1012E000DF92EF92FF920F931F93CF93DF93CDB7CF
:1012F000DEB76C970FB6F894DEBF0FBECDBF8C0182
:101300001B01DC0114968C9114978F77863009F4B9
:1013100092C268F58230A0F11296ED90FC9013977E
:10132000CC901196DC90843008F056C2A701B6012B
:10133000C1010E94EB05F101828193816C960FB689
:10134000F894DEBF0FBECDBFDF91CF911F910F91FB
:10135000FF90EF90DF90CF90BF90AF909F908F90D5
:101360007F906F905F904F903F902F9008958C30BA
:1013700069F160F4883009F459C28A3009F43FC237
:1013800068E572E0C1010E943B09E5C1803209F4C1
:10139000ECC18034A9F76BE5C1010E94D605F801C4
:1013A000008111810115110509F4DAC1B101C801EB
:1013B0000E946509C8010E949B088C01892B09F4D1
:1013C000CFC16CE2C1010E94D605ECCFF801C0800C
:1013D000D180E280F380A7019601C701B6010E9487
:1013E0002C178111CDCF20E030E0A901C701B60153
:1013F0000E942C17882379F0A7019601C701B60136
:101400000E94D7189B01AC01C701B6010E942C179E
:10141000882309F4B5CF20E030E0A901C701B60167
:101420000E942C1787FF08C06DE2C1010E94D605FB
:10143000F7FAF094F7F8F09420E836E948E15BE435
:10144000C701B6010E94721987FD81C074E1A72E01
:10145000B12C00E210E0188E1F8AF501E053FD4F19
:101460002591359145915491C701B6010E94721999
:1014700087FD13C0F501E851FD4F25913591459148
:101480005491C701B6010E9492176B017C012F890C
:10149000388D200F311F388F2F8B1595079534E02D
:1014A000A31AB1088CEFA8168FEFB806B1F6552431
:1014B0005A9420E030E0A901C701B6010E947219D8
:1014C00018160CF04BC02CEA35EC47E257E3C70185
:1014D000B6010E942C1718160CF440C0A52DB4E0DC
:1014E000AB02C0011124B12CA12CFC01E856FE4F27
:1014F0003F019C0120533D4F49013FEF531671F1CD
:10150000F301EA0DFB1D2591359145915491C701D9
:10151000B6010E942C1787FF13C0F401EA0DFB1DD2
:101520002591359145915491C701B6010E949217BA
:101530006B017C018F89988D801B910B988F8F8B0D
:10154000159507955A9494E0A91AB108D6CF00E2F0
:1015500010E055E0552E188E1F8AABCFC701B6019B
:101560000E9443194B015C012B013C0106E080E421
:1015700092E4AFE0B0E0898F9A8FAB8FBC8F102FD1
:1015800001509AE04916510461047104C8F0698D54
:101590007A8D8B8D9C8D2AE030E040E050E00E94F7
:1015A0008218298F3A8F4B8F5C8FC301B2012AE0DA
:1015B00030E040E050E00E94821829013A01DFCF7C
:1015C000C501B4010E9431179B01AC01C701B601EE
:1015D0000E94D6186B017C01698D7A8D8B8D9C8D54
:1015E0000E9431179B01AC01C701B6010E949217FE
:1015F0002B013C010E9443196B017C010E943117B1
:101600009B01AC01C301B2010E94D6189B01AC0141
:101610000E94D7180E944319C60ED71EE81EF91E55
:10162000898D9A8DAB8DBC8DC816D906EA06FB064E
:10163000D8F09FEF891A990AA90AB90AAF89B88D1B
:10164000AB2B39F1BAE08B169104A104B10408F177
:10165000EF89F88D3196F88FEF8BC12CD12C760164
:10166000812C912C540183942AE0422E512C612C20
:10167000712CC701B601A30192010E948218672B49
:10168000682B692B51F4111644F469017A01115049
:10169000F0CFC12CD12C7601E7CFB501A401C10157
:1016A0000E940006112371F14E01F1E18F0E911C91
:1016B000012F54019AE0492E512C612C712C0150BC
:1016C00068F0C701B601A30192010E948218605D13
:1016D000D4016E934D0169017A01F1CF812F90E021
:1016E000BC0160957095F501E81BF90B31978EE20E
:1016F000808344275527461B570B6A0D7B1DC1016C
:101700000E94EB05EF89F88DEF2B29F165E6C10109
:101710000E94D6050F89188D17FF07C06DE2C10121
:101720000E94D605119501951109FE0177969F013A
:101730008AE0E82EF12CC801B7010E94B318805D41
:1017400082938B01672BB9F7A9014E1B5F0BBF0179
:10175000C1010E94EB05D10112968D919C91EECDB5
:101760006DE5C1010E94D605F6CF6BE7C1010E946D
:10177000D605F801008111810115110559F1D80133
:101780001696CC9016971796DC9062E2C1010E94E3
:10179000D6057601F70161917F01662321F0C10131
:1017A0000E944509F7CF62E2C1010E94D6056AE3B3
:1017B000C1010E94D605B101C8010E946509C80196
:1017C0000E949B088C01892B29F06CE2C1010E94C8
:1017D000D605D2CF6DE7C5CF62E2C1010E94D60522
:1017E0008601E00EF11EE016F10639F0F801619174
:1017F0008F01C1010E944509F6CF62E2B2CFCD90C0
:10180000DD90ED90FC90B701A601F7FE0BC06DE2F4
:10181000C1010E94D60544275527BA014C195D091C
:101820006E097F09C1010E94000685CD4D915D9131
:101830006D917C91F7CF8C916DE572E0811102C0C2
:1018400062E672E0C1010E943B0975CD0F931F93C0
:10185000CF93DF93D0E0C0E06115710591F08B016B
:10186000FC01C081D181209761F06E817F81C80128
:101870000E94D719892B29F0CE010E949B08EC0108
:10188000F2CFCE01DF91CF911F910F9108954F922A
:101890005F926F927F92BF92CF92DF92EF92FF9210
:1018A0000F931F93CF93DF93EC018B01E42E0E94E3
:1018B000C506F82E811110C0F12C8F2DDF91CF912C
:1018C0001F910F91FF90EF90DF90CF90BF907F908E
:1018D0006F905F904F900895CE010E94640687320A
:1018E00009F42BC10CF5823209F427C1CE010E9404
:1018F0006406B82E6E01FFE0CF0ED11CE12C36013C
:101900008B2D0E944C06882309F443C12FE3E21675
:1019100009F43FC11C86E394F601B1926F01CE0138
:101920000E946406B82EECCF8B3509F44AC08B3781
:10193000E9F6F801848180788062848311821082C4
:1019400013821282EE2009F447C01C86CE010E9449
:10195000C506882309F4B0CF6DE7CE010E94B40616
:10196000D82E8111AACFCC24C394EA94E881F981BE
:10197000828193819B838A838481958122813381B3
:10198000821B930B9F838E831D821C82892B09F4FB
:10199000C086CE010E946406873209F45DC082329F
:1019A00009F45AC0CE010E946406F82E0E944C062B
:1019B000811159C0C15BDF4F83E090E09983888338
:1019C00050C0F80184818078806484831182108201
:1019D00013821282E11007C0C15BDF4F85E090E007
:1019E0009983888369CF1C86CE010E94C50688230F
:1019F00009F462CF6DE5CE010E94B40681115DCF7E
:101A0000EA946D857E85C8010E942908009729F413
:101A1000C15BDF4F84E090E0E3CF4E2DBC01CE01EF
:101A20000E94470C882309F447CFCE010E94C506C7
:101A3000882309F441CF6DE5CE010E94B4068111DF
:101A40003CCF6CE2CE010E94B4068111DACFC15BBB
:101A5000DF4F83E090E0C4CFCE010E943B078111AD
:101A600019C0FD2C2ACF1C866F2DCE010E942107A4
:101A7000CE010E946406F82E0E944C068111F3CF1D
:101A8000E881F9818085882329F0C15BDF4F84E0FC
:101A900090E094CFCE010E94C506882311F36AE33B
:101AA000CE010E94B406882309F484CFEA81FB8129
:101AB0008C819D81E80FF91F10826C807D806A8186
:101AC0007B81C8010E94260CBC01892BA1F4B301C3
:101AD000888199810E945E083C016D857E85C801E0
:101AE0000E942908FC01892B81F28481806884830B
:101AF00077826682BF014E2DCE010E94470C88235B
:101B000009F4AFCFCE010E94C506882309F4A9CFFE
:101B10006DE7CE010E94B40681110DC06CE2CE01CA
:101B20000E94B406882309F445CFCE010E94C50661
:101B300081111CCF96CFD82E94CFE881F981828174
:101B400093819B838A838481958122813381821B47
:101B5000930B9F838E831D821C82892B11F481E05D
:101B60008087CE010E943B07F82E882309F4A4CE7B
:101B7000CC80DD80B601888199810E945E08F801E1
:101B8000248120782560248391838083D382C2823C
:101B900094CEFE01EE0DF11D17868F85843781F4FA
:101BA000F801848180788660848381E08083F4E01A
:101BB000EF1609F482CEC15BDF4F82E090E010CFD8
:101BC000863641F4F80184818078866084831082AF
:101BD000F5E0EECF8E3621F424E0E212ECCF6DCEAC
:101BE0008B32D9F1F3018D32D1F5FE017096BF2C05
:101BF000808190ED980F9A3018F08E3209F027CF3F
:101C00006F0160E070E0CB01F6012191A0ED4A2E5A
:101C1000420E39E0341528F16A3949E9740784071E
:101C200049E1940740F5AAE0B0E09B01AC010E94B5
:101C30006F18512C712C612CA301920120953095C5
:101C4000409550952617370748075907A0F0640DAF
:101C5000751D861D971D6F01D7CFFE017096B12CA3
:101C6000C7CF211108C0BB2071F16130710581051A
:101C700050E89507A0F0E12CEAE04E2E512C612CA3
:101C8000712C61157105F0E88F07910530F1A30102
:101C900092010E948218CA01B901E394F2CFF801BF
:101CA000248120782A6024839B01AC01882799270E
:101CB000DC01821B930BA40BB50B80839183A28361
:101CC000B383FB2CFACDF80124812078286024838B
:101CD0006083718382839383F0CDD601F6012191D5
:101CE0006F0130ED320F3A3010F4E394F6CF2E321C
:101CF000F1F4FD013196DF0131962C9150EDD52E96
:101D0000D20E29E02D1598F06C3C3CEC73073CE0BA
:101D10008307910580F7AAE0B0E09B01AC010E9427
:101D20006F186D0D711D811D911DEA94E4CF2C91EA
:101D30002F7D253409F08CC011962C9111972D32EE
:101D4000D9F512967F2CFD0130E020E0CE2C0E2C30
:101D5000000CDD084AE0542EDF01619040ED460D95
:101D60004A3008F043C0529EA001539E500D1124EA
:101D7000262D660C330B20533109240F351FA60185
:101D8000420F531F473251053CF3F80184817720FD
:101D9000D1F040E050E060E070E8B11003C040E0F6
:101DA00050E0BA0180788C60F801848340835183CD
:101DB00062837383F72C81CD2B3219F01196712C2D
:101DC000C2CF1296FCCF40E050E060E87FEFB11048
:101DD00004C040E050E060E87FE780788C60F80164
:101DE0008483408351836283738367CD772019F0A6
:101DF0003195219531094C91411129CEE901CE0D42
:101E0000D11DE7FCDA950E9431171C161D061CF542
:101E1000E12CC0FF0CC024E0E29EF0011124E0534D
:101E2000FD4F25913591459154910E949217D5957A
:101E3000C795E394209769F7B1109058F801248171
:101E400020782C602483608371838283938335CDD3
:101E500030E020E0D0CFD195C195D109E12C209779
:101E600059F3C0FF0CC044E0E49EF0011124E85196
:101E7000FD4F25913591459154910E949217D5952A
:101E8000C795E394ECCFEF92FF920F931F93CF93FC
:101E9000DF93EC018C81982F9F7739F480788062F2
:101EA0008C83198218821B821A828C8185FF1DC047
:101EB00061157105D1F07A018B01CE010E94260CCB
:101EC000009761F4B701CE010E942908009731F014
:101ED000FC0124812F77248317830683DF91CF9120
:101EE0001F910F91FF90EF90089590E080E0F6CF62
:101EF0000F931F93CF93DF93CDB7DEB7C356D24076
:101F00000FB6F894DEBF0FBECDBFCE010F969A83F9
:101F100089839C838B8383E092E08C0F9D1F9E833B
:101F20008D8398878F8319861E8682509240C45A6B
:101F3000DD4F99838883CC55D24028E0FE01E45AD6
:101F4000FD4FDE01AC5ABD4F01900D922A95E1F78D
:101F500028E0FE01EC5AFD4FDE01AD5FBD4F019060
:101F60000D922A95E1F7C55FDD4F1882CB50D24024
:101F70002DE533E0C45FDD4F39832883CC50D24058
:101F8000C15FDD4F1882CF50D240C05FDD4F9983D3
:101F90008883C051D240CE5ADD4F19821882C25573
:101FA000D2404AE0BE01665F7F4F8E5F9D4F0E9428
:101FB000470CCE5ADD4F08811981C255D240011518
:101FC000110529F5C25FDD4F8881CE50D2408823AC
:101FD000F1F08E8583FF1BC01092530303E010E0E5
:101FE00068E672E08DE593E00E94AB08000F111FD8
:101FF000F801E25FFD4F6081718161157105D9F5CE
:1020000063E872E08DE593E00E94AB0808C010928F
:1020100053030115110521F78E8585FD0CC0CD599F
:10202000DD4F0FB6F894DEBF0FBECDBFDF91CF916D
:102030001F910F9108956FE772E0CE010A960E94FA
:10204000260C009761F3FC0184818F7741F36FE7E1
:1020500072E0CE010A960E94260CFC01892B81F1C8
:1020600094819F77983019F158F4992349F196306B
:10207000C1F011E017C08DE593E00E94AB08C0CF1E
:102080009A30A9F09C30A9F711E020E030E0A901D6
:1020900060817181828193810E942C17811102C01D
:1020A0000FC01081612F83E30E944402B8CF11E07A
:1020B00080819181A281B381892B8A2B8B2B91F70F
:1020C00010E0F0CF8F929F92AF92BF92EF92FF926B
:1020D0000F931F93CF93DF93CDB7DEB7C650D24097
:1020E0000FB6F894DEBF0FBECDBFCE010F969A8318
:1020F00089839C838B838E010D5F1D4F1E830D830F
:1021000018870F8319861E868FB7F8948090550321
:1021100090905603A0905703B09058038FBFAE0124
:102120004F5F5F4F66E872E0CE010A960E94430F50
:10213000FC01892B41F0948190789860948380828F
:102140009182A282B3828FE30E94A3027C01AE013E
:102150004F5F5F4F6BE872E0CE010A960E94430F1B
:10216000BC01C7010E94C5058DE10E941B027C01D4
:10217000AE014F5F5F4F6FE872E0CE010A960E949A
:10218000430FBC01C7010E94C5058FE10E941B02DD
:102190007C01AE014F5F5F4F67E972E0CE010A96A6
:1021A0000E94430FBC01C7010E94C50583E20E9443
:1021B0001B027C01AE014F5F5F4F6FE972E0CE0101
:1021C0000A960E94430FBC01C7010E94C50581E227
:1021D0000E941B027C01AE014F5F5F4F67EA72E015
:1021E000CE010A960E94430FBC01C7010E94C5059B
:1021F00085E40E94A3027C01AE014F5F5F4F6FEA4E
:1022000072E0CE010A960E94430FBC01C7010E94F2
:10221000C50584E40E94A3027C01AE014F5F5F4FBD
:1022200064EB72E0CE010A960E94430FBC01C70125
:102230000E94C50583E40E94A3027C01AE014F5FAA
:102240005F4F69EB72E0CE010A960E94430FBC011A
:10225000C7010E94C50581E40E94A3027C01AE0172
:102260004F5F5F4F6EEB72E0CE010A960E94430F04
:10227000BC01C7010E94C50580E40E94A3027C0145
:10228000AE014F5F5F4F63EC72E0CE010A960E9491
:10229000430FBC01C7010E94C50585E30E941B02D4
:1022A0007C01AE014F5F5F4F68EC72E0CE010A9691
:1022B0000E94430FBC01C7010E94C50587E10E942F
:1022C0001B027C01AE014F5F5F4F62ED72E0CE01F9
:1022D0000A960E94430FBC01C7010E94C50589E10F
:1022E0000E941B027C01AE014F5F5F4F6CED72E0FC
:1022F000CE010A960E94430FBC01C7010E94C5058A
:1023000085E40E94A3027C0184E40E94A30222E0EF
:10231000E226E2E08E27E80EF91E83E40E94A30283
:10232000BC01F2E06F276E0D7F1D072E000C880B9D
:10233000990B0E9433170E947D194B015C0120E02C
:1023400030E048E052E40E947219EE24E394F12C4C
:10235000181654F020E030E048EE51E4C501B40115
:102360000E942C1787FFE12CAE014F5F5F4F66EE96
:1023700072E0CE010A960E94430FBC01C7010E9481
:10238000C50560914B0370914C0380914D03909172
:102390004E03611571058105910511F00E94231707
:1023A0000E94D4164B015C01AE014F5F5F4F6CEE93
:1023B00072E0CE010A960E94430F7C01009791F0D3
:1023C000FC01848180788A608483C501B4012AE09D
:1023D00030E040E050E00E945018F70160837183C4
:1023E000828393838DE593E0F80191838083138248
:1023F0001282B801CE010A960E94650963E872E074
:102400008DE593E00E94AB0810924A03CA5FDD4F4E
:102410000FB6F894DEBF0FBECDBFDF91CF911F91F5
:102420000F91FF90EF90BF90AF909F908F90089585
:102430001F920F920FB60F9211242F933F938F93F9
:102440009F93AF93BF938091550390915603A091B2
:102450005703B09158033091540323E0230F2D37D5
:1024600058F50196A11DB11D209354038093550387
:1024700090935603A0935703B09358038091590348
:1024800090915A03A0915B03B0915C030196A11D4A
:10249000B11D8093590390935A03A0935B03B093AB
:1024A0005C03BF91AF919F918F913F912F910F90BE
:1024B0000FBE0F901F90189526E8230F0296A11DBE
:1024C000B11DD2CF1F920F920FB60F9211240BB6EF
:1024D0000F922F933F934F935F936F937F938F93BD
:1024E0009F93AF93BF93EF93FF938DE593E00E948B
:1024F0008603FF91EF91BF91AF919F918F917F9153
:102500006F915F914F913F912F910F900BBE0F9064
:102510000FBE0F901F9018951F920F920FB60F923B
:1025200011240BB60F922F938F939F93EF93FF93EA
:10253000E0916D03F0916E038081E0917303F0915F
:10254000740382FD1DC09081809176038F5F8F732D
:1025500020917703821741F0E0917603F0E0E35A8F
:10256000FC4F958F80937603FF91EF919F918F9110
:102570002F910F900BBE0F900FBE0F901F901895CC
:102580008081F2CF1F920F920FB60F9211240BB6DB
:102590000F922F933F934F935F936F937F938F93FC
:1025A0009F93AF93BF93EF93FF93E0910002F0915D
:1025B00001021995FF91EF91BF91AF919F918F917A
:1025C0007F916F915F914F913F912F910F900BBE33
:1025D0000F900FBE0F901F901895CF93DF9310921E
:1025E000600310925F0388EE93E0A0E0B0E0809378
:1025F000610390936203A0936303B09364038EE13D
:1026000092E090935E0380935D0385EC90E090935D
:102610006A038093690384EC90E090936C03809349
:102620006B0380EC90E090936E0380936D0381ECDC
:1026300090E09093700380936F0382EC90E090930E
:1026400072038093710386EC90E0909374038093FF
:10265000730310927603109277031092780310920E
:1026600079031092FD031092FC0380E392E09093B3
:10267000FB038093FA0386E1809305048FEF809338
:10268000060488E1809307048AE1809308048CE1C2
:10269000809309048EE180930A0480E280930B0406
:1026A00010920C0410920D0410920E0410920F045C
:1026B000C8E0D4E061E089910E94720284E0CC30ED
:1026C000D807C1F761E0809105040E9472028091F1
:1026D00006048F3F19F061E00E94720261E0809170
:1026E00007040E9472021092FE0360E080910504CC
:1026F0000E94440260E0809107040E94440280919D
:1027000006048F3F19F060E00E9444028FEF80932F
:1027100010041092040410920304DF91CF910895E5
:10272000789484B5826084BD84B5816084BD85B5AC
:10273000826085BD85B5816085BD80916E008160B8
:1027400080936E001092810080918100826080935E
:102750008100809181008160809381008091800060
:102760008160809380008091B10084608093B1008B
:102770008091B00081608093B00080919100826070
:10278000809391008091910081608093910080916D
:1027900090008160809390008091A100826080937E
:1027A000A1008091A10081608093A1008091A00090
:1027B00081608093A000809121018260809321013B
:1027C00080912101816080932101809120018160AD
:1027D0008093200180917A00846080937A008091B8
:1027E0007A00826080937A0080917A008160809381
:1027F0007A0080917A00806880937A001092C100FC
:10280000E0916D03F0916E0382E08083E0916903B3
:10281000F0916A031082E0916B03F0916C0390E1F8
:10282000908310927503E0917103F091720386E03A
:102830008083E0916F03F0917003808180618083D9
:10284000E0916F03F0917003808188608083E09154
:102850006F03F0917003808180688083E0916F0343
:10286000F091700380818F7D80839093810010921E
:10287000800080E293E0909387008093860081E15E
:10288000809381008BEE96E090930102809300028A
:1028900081E080936F0080917C00806480937C0055
:1028A00080917A0010927A0080917A0085688093F6
:1028B0007A0060E08EE30E94720261E08CE00E9488
:1028C000720261E08BE00E94720261E08AE00E9485
:1028D000720261E089E00E94720261E088E00E9479
:1028E000720261E087E00E94720261E086E00E946D
:1028F000720261E085E00E94720261E084E00E9461
:10290000720261E083E00E94720261E083E30E9450
:10291000720261E081E30E94720261E08FE20E9434
:10292000720261E08DE20E94720260E085E40E9422
:10293000720260E084E40E94720260E083E40E941C
:10294000720261E08DE00E94720260E08DE10E94FF
:10295000720260E08FE10E94720260E083E20E94F6
:10296000720260E081E20E94720261E08DE10E94E9
:10297000440261E08FE10E94440261E083E20E9430
:10298000440261E081E20E94440260E087E10E942B
:10299000720260E089E10E94720261E087E10E94B8
:1029A000440261E089E10E94440260E081E40E9407
:1029B000720260E080E40E94720260E085E30E949F
:1029C000720220E042E060E18AEF93E00E942F056E
:1029D00064E670E080E090E00E94E002CBE3DFE19B
:1029E0008EEDC82E83E0D82EE12CF12C80E00E94E1
:1029F000EF0463EF72E08AEF93E00E94AB088FE38D
:102A00000E94A3020E94BA0881E00E94EF046EEFC8
:102A100072E08AEF93E00E94AB0883E20E941B02FF
:102A20000E94BA0861E073E08AEF93E00E94AB086D
:102A300081E20E941B020E94BA0865E073E08AEFFF
:102A400093E00E94AB088DE10E941B020E94BA082D
:102A500069E073E08AEF93E00E94AB088FE10E9487
:102A60001B020E94BA0863E070E080E090E00E94E0
:102A7000E00261E08AEF93E00E94E704CE01019753
:102A8000F1F78FE30E94A3022AE030E0DC010E940C
:102A9000CF18A70196010E9450182B30310541052F
:102AA000510508F03AC0F9018827E65AFA4E8F4FCF
:102AB0000C94C7186515C015C215C815D215E015B8
:102AC000F215081622164016621661E08CE00E948C
:102AD000440261E08BE00E94440261E08AE00E94CF
:102AE000440261E089E00E94440261E088E00E94C3
:102AF000440261E087E00E94440261E086E00E94B7
:102B0000440261E085E00E94440261E084E00E94AA
:102B1000440261E083E00E9444028DE10E941B02B6
:102B200060E0892B09F061E08FE20E9444028FE1AE
:102B30000E941B0260E0892B09F061E081E30E94A2
:102B4000440283E20E941B0260E0892B09F061E0ED
:102B500083E30E94440281E20E941B0260E0892B11
:102B600009F061E08DE20E944402809153038823C2
:102B700021F00E94780F0E9462100E94190436CF43
:102B800060E0A4CF60E08CE00E94440260E0A2CF4D
:102B900060E08CE00E94440260E08BE00E9444020E
:102BA00060E09CCF60E08CE00E94440260E08BE03B
:102BB0000E94440260E08AE00E94440260E092CFFA
:102BC00060E08CE00E94440260E08BE00E944402DE
:102BD00060E08AE00E94440260E089E00E944402D2
:102BE00060E084CF60E08CE00E94440260E08BE013
:102BF0000E94440260E08AE00E94440260E089E0B2
:102C00000E94440260E088E00E94440260E072CFCB
:102C100060E08CE00E94440260E08BE00E9444028D
:102C200060E08AE00E94440260E089E00E94440281
:102C300060E088E00E94440260E087E00E94440275
:102C400060E05CCF60E08CE00E94440260E08BE0DA
:102C50000E94440260E08AE00E94440260E089E051
:102C60000E94440260E088E00E94440260E087E045
:102C70000E94440260E086E00E94440260E042CF8D
:102C800060E08CE00E94440260E08BE00E9444021D
:102C900060E08AE00E94440260E089E00E94440211
:102CA00060E088E00E94440260E087E00E94440205
:102CB00060E086E00E94440260E085E00E944402F9
:102CC00060E024CF60E08CE00E94440260E08BE092
:102CD0000E94440260E08AE00E94440260E089E0D1
:102CE0000E94440260E088E00E94440260E087E0C5
:102CF0000E94440260E086E00E94440260E085E0B9
:102D00000E94440260E084E00E94440260E002CF3E
:102D10008F929F92AF92BF92CF92DF92EF92FF92EB
:102D2000CF93DF93EC01688179818A819B81611562
:102D300071058105910521F464E279ED8BE597E059
:102D40002DE133EF41E050E00E94501849015A0153
:102D50009B01AC01A7EAB1E40E946F186B017C01F2
:102D6000ACEEB4EFA50194010E947D18C60ED71EEB
:102D7000E81EF91EF7FE06C081E0C81AD108E10876
:102D800080E8F80AC882D982EA82FB82C701B601CC
:102D90009F77DF91CF91FF90EF90DF90CF90BF9022
:102DA000AF909F908F9008958F929F92AF92BF9215
:102DB000CF92DF92EF92FF92609102027091030234
:102DC00080910402909105026115710581059105BC
:102DD00021F464E279ED8BE597E02DE133EF41E0FA
:102DE00050E00E94501849015A019B01AC01A7EA2A
:102DF000B1E40E946F186B017C01ACEEB4EFA50149
:102E000094010E947D18C60ED71EE81EF91EF7FE1B
:102E100006C081E0C81AD108E10880E8F80AC0922B
:102E20000202D0920302E0920402F0920502C7016E
:102E3000B6019F77FF90EF90DF90CF90BF90AF905B
:102E40009F908F9008956093020270930302809385
:102E500004029093050208950E946E1708F481E021
:102E60000895E89409C097FB3EF49095809570957D
:102E700061957F4F8F4F9F4F9923A9F0F92F96E9C6
:102E8000BB279395F695879577956795B795F1113B
:102E9000F8CFFAF4BB0F11F460FF1BC06F5F7F4FD8
:102EA0008F4F9F4F16C0882311F096E911C07723EA
:102EB00021F09EE8872F762F05C0662371F096E8F3
:102EC000862F70E060E02AF09A95660F771F881FC2
:102ED000DAF7880F9695879597F90895990F000866
:102EE000550FAA0BE0E8FEEF16161706E807F907DC
:102EF000C0F012161306E407F50798F0621B730B77
:102F0000840B950B39F40A2661F0232B242B252BF7
:102F100021F408950A2609F4A140A6958FEF811D9A
:102F2000811D08950E94A5170C9416180E94081878
:102F300038F00E940F1820F0952311F00C94FF1721
:102F40000C94051811240C944A180E94271870F349
:102F5000959FC1F3950F50E0551F629FF001729F3E
:102F6000BB27F00DB11D639FAA27F00DB11DAA1F4D
:102F7000649F6627B00DA11D661F829F2227B00D9A
:102F8000A11D621F739FB00DA11D621F839FA00D25
:102F9000611D221F749F3327A00D611D231F849F75
:102FA000600D211D822F762F6A2F11249F575040CC
:102FB0009AF0F1F088234AF0EE0FFF1FBB1F661F47
:102FC000771F881F91505040A9F79E3F510580F010
:102FD0000C94FF170C944A185F3FE4F3983ED4F327
:102FE000869577956795B795F795E7959F5FC1F7B4
:102FF000FE2B880F911D9695879597F9089597F95F
:103000009F6780E870E060E008959FEF80EC08958E
:1030100000240A94161617061806090608950024B7
:103020000A9412161306140605060895092E039431
:10303000000C11F4882352F0BB0F40F4BF2B11F4A5
:1030400060FF04C06F5F7F4F8F4F9F4F089557FD04
:103050009058440F551F59F05F3F71F04795880F06
:1030600097FB991F61F09F3F79F08795089512169D
:1030700013061406551FF2CF4695F1DF08C0161649
:1030800017061806991FF1CF8695710561050894FA
:103090000895E894BB2766277727CB0197F9089511
:1030A000052E97FB1EF400940E94671857FD07D069
:1030B0000E94821807FC03D04EF40C9467185095B8
:1030C0004095309521953F4F4F4F5F4F0895909514
:1030D0008095709561957F4F8F4F9F4F08950E9407
:1030E000A418A59F900DB49F900DA49F800D911DD5
:1030F00011240895B7FF0C946F180E946F18821B5B
:10310000930B0895A1E21A2EAA1BBB1BFD010DC053
:10311000AA1FBB1FEE1FFF1FA217B307E407F50787
:1031200020F0A21BB30BE40BF50B661F771F881F63
:10313000991F1A9469F760957095809590959B01F9
:10314000AC01BD01CF010895A29FB001B39FC001A2
:10315000A39F700D811D1124911DB29F700D811DC3
:103160001124911D0895AA1BBB1B51E107C0AA1F82
:10317000BB1FA617B70710F0A61BB70B881F991F18
:103180005A95A9F780959095BC01CD010895EE0F51
:10319000FF1F881F8BBF0790F691E02D19940E94A6
:1031A000A418B7FF0895821B930B08955058BB27AE
:1031B000AA270E94EE180C9416180E94081838F0DE
:1031C0000E940F1820F039F49F3F19F426F40C9454
:1031D00005180EF4E095E7FB0C94FF17E92F0E9409
:1031E000271858F3BA17620773078407950720F06A
:1031F00079F4A6F50C9449180EF4E0950B2EBA2F2D
:10320000A02D0B01B90190010C01CA01A0011124EC
:10321000FF27591B99F0593F50F4503E68F11A1698
:10322000F040A22F232F342F4427585FF3CF469529
:1032300037952795A795F0405395C9F77EF41F164B
:10324000BA0B620B730B840BBAF09150A1F0FF0F15
:10325000BB1F661F771F881FC2F70EC0BA0F621F01
:10326000731F841F48F4879577956795B795F795F1
:103270009E3F08F0B0CF9395880F08F09927EE0F86
:103280009795879508950E942F1888F09F5798F07A
:10329000B92F9927B751B0F0E1F0660F771F881F5B
:1032A000991F1AF0BA95C9F714C0B13091F00E9475
:1032B0004918B1E008950C944918672F782F882792
:1032C000B85F39F0B93FCCF3869577956795B3959C
:1032D000D9F73EF490958095709561957F4F8F4F0B
:1032E0009F4F08950E946E1708F48FEF089519F408
:1032F00016F40C9405180C94BD190E942F18B8F3FD
:103300009923C9F3B6F39F57550B87FF0E94CB193A
:103310000024A0E640EA900180585695979528F43D
:10332000805C660F771F881F20F026173707480735
:1033300030F4621B730B840B202931294A2BA6958C
:1033400017940794202531254A2758F7660F771FD1
:10335000881F20F026173707480730F4620B730BDD
:10336000840B200D311D411DA09581F7B901842FDB
:103370009158880F9695879508959F3F31F0915009
:1033800020F4879577956795B795880F911D969549
:10339000879597F9089591505040660F771F881FC1
:1033A000D2F7089581E090E0F8940C94E019FB01C5
:1033B000DC018D91019080190110D9F3990B0895CA
:0433C000F894FFCFAF
:1033C40048040100000000401454004010500D0354
:1033D40010031B032B033803410300000000A80360
:1033E40012033F03F50370034E0362030000000061
:1033F400DC041203C205C1052F0592047F04AE0448
:103404002F2F22225C5C6208660C6E0A720D74090E
:10341400005C7530303030006E756C6C0074727501
:10342400650066616C736500646573657269616CDF
:10343400697A652829206661696C65643A20006CA4
:103444006564000D0A0074696D6500706F74006234
:103454006F75746F6E3100626F75746F6E320062D7
:103464006F75746F6E3300626F75746F6E340041E4
:103474006363580041636359004163635A004A6FB0
:103484007958004A6F7959004A6F79426F75746FA1
:103494006E004761636865747465310047616368F1
:1034A4006574746532007368616B650072616E6483
:1034B4006F6D00506F742076616C75653A00413A07
:1034C4000020423A0020593A0020583A004F6B003D
:1034D400456D707479496E70757400496E636F6DD3
:1034E400706C657465496E70757400496E76616CB4
:1034F4006964496E707574004E6F4D656D6F7279B5
:0A35040000546F6F4465657000000D
:00000001FF
