:100000000C94A0010C94D1010C94D1010C94D10159
:100010000C94D1010C94D1010C94D1010C94D10118
:100020000C94D1010C94D1010C94D1010C94D10108
:100030000C94D1010C94D1010C94D1010C94D101F8
:100040000C94D1010C94D1010C94D1010C94D101E8
:100050000C94D1010C94D1010C94D1010C941C0F7F
:100060000C94D1010C94900F0C94660F0C94D10158
:100070000C94D1010C94D1010C94D1010C94D101B8
:100080000C94D1010C94D1010C94D1010C94D101A8
:100090000C94D1010C94D1010C94D1010C94D10198
:1000A0000C94D1010C94D1010C94D1010C94D10188
:1000B0000C94D1010C94D1010C94D1010C94D10178
:1000C0000C94D1010C94D1010C94D1010C94D10168
:1000D0000C94D1010C94D1010C94D1010C94D10158
:1000E0000C94D10105A84CCDB2D44EB93836A90232
:1000F0000C50B9918688083CA6AAAA2ABE00000026
:10010000803F0C949A120C9435120C940C020C94AF
:1001100019030C94A4120C94B8120C9423130C948D
:10012000C0030C94C8120C9473030C9485130C94A4
:1001300031020C9436020C9432020C9481120C940D
:1001400053120C9406020C9463120C942B130C940F
:1001500043130C94C5130C943F120C941A020C9484
:10016000AE120C9455130C9449120C9424020C9466
:10017000DD020C9490120C946B130C9410020C94EE
:10018000C2120C94F1010C945B120C946D120C943D
:10019000EB130C94F7010C943B030C94A3130C94F5
:1001A0002D030C9435130C94FF010C9428020C942D
:1001B000FB010C9430120C9477120C9403020C94F3
:1001C00025130C942C020C9416020C942B120C94F4
:1001D0001E020C940A030000803FCDCCCC3D6F1270
:1001E000833A95BFD6337D1D9026B3CE010C000017
:1001F0002100240027002A002D00300033000101D7
:100200000000040107010A01000022002500280067
:100210002B002E003100340002010000050108010E
:100220000B01000020002300260029002C002F00D5
:100230003200000100000301060109010505050562
:10024000070508080808020202020A0A080804044E
:10025000040401010101010101010303030303037C
:100260000303040707070C0C0C0C0C0C0C0C02020B
:10027000020206060606060606060B0B0B0B0B0B08
:100280000B0B010210202008081020401020408095
:10029000020102010804020101020408102040804A
:1002A00080402010080402018004020180402010D8
:1002B0000804020108040201010204081020408021
:1002C000010204081020408000000A0B02090C0DF6
:1002D0000E080703040100000000000000000000F9
:1002E000000000000000000000000000000000000E
:1002F00000000000121110000000000000000000CB
:1003000000000000000000000000000000000000ED
:1003100020410000C84200401C4620BCBE4CCA1B05
:100320000E5AAEC59D74CDCCCC3D0AD7233C17B731
:10033000D13877CC2B329595E6241FB14F0AEB13B9
:1003400011241FBECFEFD1E2DEBFCDBF00E00CBF56
:1003500012E0A0E0B2E0E4E0FEE200E00BBF02C089
:1003600007900D92A43EB107D9F723E0A4EEB2E0C6
:1003700001C01D92A039B207E1F711E0C0EAD1E057
:1003800000E006C021970109802FFE010E94AB15F5
:10039000CF39D10780E00807A9F70E94C60F0C9457
:1003A00000170C9400008150823108F05AC0E82FE9
:1003B000F0E08827E152FE4F8F4F0C94AB15FF0100
:1003C0000302F101F701FB01310206020C021002E7
:1003D00016021A021E022402280231022C023202E4
:1003E0003602809180008F778093800008958091FD
:1003F00080008F7DF9CF80918000877FF5CF84B515
:100400008F7784BD089584B58F7DFBCF8091B00038
:100410008F778093B00008958091B0008F7DF9CFE1
:10042000809190008F778093900008958091900044
:100430008F7DF9CF80919000877FF5CF8091A000CC
:100440008F778093A00008958091A0008F7DF9CFD1
:100450008091A000877FF5CF809120018F778093D6
:1004600020010895809120018F7DF9CF8091200196
:10047000877FF5CFCF93DF93282F30E0F901E85342
:10048000FD4F8491F901EE57FD4FD491F901E45CE1
:10049000FD4FC491CC23A1F081110E94D301EC2F18
:1004A000F0E0EE0FFF1FEE5DFD4FA591B491EC91D2
:1004B000ED2381E090E009F480E0DF91CF91089591
:1004C00080E090E0FACF1F93CF93DF93282F30E0A6
:1004D000F901E853FD4F8491F901EE57FD4FD49196
:1004E000F901E45CFD4FC491CC23A9F0162F8111D2
:1004F0000E94D301EC2FF0E0EE0FFF1FE85FFD4FED
:10050000A591B4918FB7F894EC91111108C0D095D2
:10051000DE23DC938FBFDF91CF911F910895DE2BF7
:10052000F8CFCF93DF9390E0FC01EE57FD4F24917D
:10053000845C9D4FFC0184918823D1F090E0880F6A
:10054000991FFC01E251FE4FA591B491FC01E85FB7
:10055000FD4FC591D49161110EC09FB7F8948C9155
:10056000E22FE0958E238C932881E223E8839FBFBE
:10057000DF91CF9108958FB7F894EC91E22BEC9333
:100580008FBFF6CF865320917B00982F987F277FCF
:10059000922B90937B008770806480937C00809185
:1005A0007A00806480937A0080917A0086FDFCCF87
:1005B00080917800909179000895AF92BF92CF9288
:1005C000DF92EF92FF920F931F93CF93DF936C0113
:1005D0007B018B01040F151FEB015E01AE18BF08F4
:1005E000C017D10759F06991D601ED91FC910190A6
:1005F000F081E02DC6011995892B79F7C501DF91AE
:10060000CF911F910F91FF90EF90DF90CF90BF900F
:10061000AF900895FC01538D448D252F30E0842F39
:1006200090E0821B930B541710F0CF96089501971A
:100630000895FC01918D828D981761F0A28DAE0F07
:10064000BF2FB11D5D968C91928D9F5F9F73928F8E
:1006500090E008958FEF9FEF0895FC01918D828DBA
:10066000981731F0828DE80FF11D858D90E0089587
:100670008FEF9FEF0895FC01918D228D892F90E0DF
:10068000805C9F4F821B91098F739927089583EF98
:1006900092E00E943B0321E0892B09F420E0822FA5
:1006A0000895FC01A48DA80FB92FB11DA35ABF4F07
:1006B0002C91848D90E001968F739927848FA68961
:1006C000B7892C93A089B1898C91837080648C93B5
:1006D000938D848D981306C00288F389E02D808164
:1006E0008F7D80830895EF92FF920F931F93CF9396
:1006F000DF93EC0181E0888F9B8D8C8D98131AC05D
:10070000E889F989808185FF15C09FB7F894EE8943
:10071000FF896083E889F9898081837080648083A0
:100720009FBF81E090E0DF91CF911F910F91FF90EB
:10073000EF900895F62E0B8D10E00F5F1F4F0F7393
:100740001127E02E8C8D8E110CC00FB607FCFACF4E
:10075000E889F989808185FFF5CFCE010E94510398
:10076000F1CFEB8DEC0FFD2FF11DE35AFF4FF0821F
:100770009FB7F8940B8FEA89FB8980818062CFCF85
:10078000CF93DF93EC01888D8823B9F0AA89BB89C8
:10079000E889F9898C9185FD03C0808186FD0DC0B3
:1007A0000FB607FCF7CF8C9185FFF2CF808185FFD4
:1007B000EDCFCE010E945103E9CFDF91CF91089593
:1007C00081E08093E50208950E944703882319F091
:1007D00081E08093E50280E090E0892B49F080E0A1
:1007E00090E0892B29F00E94000081110E940000F6
:1007F00080E090E0892B49F080E090E0892B29F09F
:100800000E94000081110E94000080E090E0892B8E
:1008100049F080E090E0892B29F00E9400008111CE
:100820000C940000089508959C01FB01309761F03D
:10083000948190789A609483C901330FAA0BBB0B03
:1008400080839183A283B3830895CF93DF93EC01D8
:1008500088819981DC01ED91FC910190F081E02D7E
:1008600019952A813B81820F931F9B838A83DF9195
:10087000CF910895CF93DF93EC0188819981DC01BA
:10088000ED91FC910280F381E02D19952A813B8145
:10089000820F931F9B838A83DF91CF9108958F925C
:1008A0009F92AF92BF92CF92DF92EF92FF920F93FF
:1008B0001F93CF93DF93CDB7DEB766970FB6F8944B
:1008C000DEBF0FBECDBF6C018E01095E1F4F7801E8
:1008D0008AE0882E912CA12CB12CCB01BA01A50164
:1008E00094010E946615942F852F605DF801629334
:1008F0008F01A901692F782F4115510561057105F7
:1009000061F7A7014E1B5F0BBF01C6010E943A04AD
:1009100066960FB6F894DEBF0FBECDBFDF91CF91C4
:100920001F910F91FF90EF90DF90CF90BF90AF900D
:100930009F908F90089580339CF08A3324F08F35F8
:1009400024F08B3724F481E0089581344CF08B350A
:10095000D4F393ED980F81E09230B0F380E00895E6
:100960008B32B9F7F0CF0F931F93CF93DF93EC0146
:100970008C85811140C009851A852FB7F894809124
:10098000EF029091F002A091F102B091F2022FBF1C
:10099000F80180879187A287B387D801ED91FC91F8
:1009A0000284F385E02DC801199597FF2AC02FB75F
:1009B000F8948091EF029091F002A091F102B09131
:1009C000F2022FBFF8014085518562857385841B33
:1009D000950BA60BB70B44815581668177818417EF
:1009E0009507A607B707C8F28FEF9FEF97FD80E046
:1009F0008B8781E08C878B85DF91CF911F910F9141
:100A000008959927F3CF1F93CF93DF93EC01162F0F
:100A10000E94B304811306C01C8681E0DF91CF9150
:100A20001F91089580E0FACFCF93DF93EC01CE01C0
:100A30000E94B3048B303CF489304CF4882349F095
:100A400081E0888710C08D3011F08032C9F71C8694
:100A5000EECF888581110AC081E090E0C15BDF4F55
:100A60009983888380E0DF91CF91089582E090E0C0
:100A7000F5CF0895FC0124813581A9014F5F5F4FB7
:100A8000868197814817590748F48281938155835D
:100A90004483FC01E20FF31F608308950190F0810D
:100AA000E02D81E0808708959F92AF92BF92CF9210
:100AB000DF92EF92FF920F931F93CF93DF9300D0BB
:100AC0001F921F92CDB7DEB78C010E94B304D82EBF
:100AD000D8011C961C92F12CE12C60EFC62EC801A7
:100AE0000E94B304F8011486D81609F4BDC0811120
:100AF00019C0F801E15BFF4F82E090E091838083B1
:100B000080E00F900F900F900F900F90DF91CF919A
:100B10001F910F91FF90EF90DF90CF90BF90AF901B
:100B20009F9008958C3509F09DC0C8010E94B304C0
:100B30008823F9F2EEE1F2E0853709F087C0D801A9
:100B40001C961C9254E0952EB12CA12CC8010E9439
:100B5000B304882371F281344CF48053803148F01F
:100B6000F801E15BFF4F83E090E0C8CF8F7D8753B2
:100B7000F5CF44E0AA0CBB1C4A95E1F7A82AF8017E
:100B800014869A949110E2CFC501985D8115944026
:100B900020F4750123E0F222A2CFC5019C5D8115EE
:100BA0009440A8F4B3E0BB22B701762F6627770FF5
:100BB000770F6A297B2990E080E001966038710503
:100BC0008105910540F4C8010E943A0588CFB5011E
:100BD00090E080E0F3CF1982262F2F7320682A83BC
:100BE00026E096958795779567952A95D1F7603297
:100BF000710580F4606C6B835E01E4E0AE0EB11CA5
:100C0000D5016E915D01662309F469CFC8010E9488
:100C10003A05F6CF262F2F7320682B8386E0769532
:100C200067958A95E1F76031710538F4606E6C83E1
:100C30005E01F5E0AF0EB11CE3CF60686C83CD823E
:100C40005E0126E0A20EB11CDBCF32969081992383
:100C500009F486CF8913F9CF8181882309F480CFE5
:100C6000F8011486682FAFCF0190F081E02D8085C8
:100C7000882331F0F801E15BFF4F84E090E03ECF44
:100C800081E03FCFCF93DF93DC01EB01EC81FD816D
:100C90008A819B810896E817F90740F481E08887EC
:100CA000F0E0E0E0CF01DF91CF9108953897FD8328
:100CB000EC833097B9F31296CD91DC91139720977E
:100CC00091F0CF018C1B9D0B23E0959587952A957C
:100CD000E1F78D831396FC93EE931297158214829D
:100CE00017821682DFCF1196FC93EE93F3CFEF922B
:100CF000FF920F931F93CF93DF937C01DC01129639
:100D00002D913C911397ED91FC91AB01420F531F34
:100D1000EF01C60FD71FC217D307A0F48881811136
:100D20000BC0E901CF014C175D0751F00991DC01BF
:100D30001D91CD010117B9F381918111FDCFE8CF4C
:100D4000309751F4620F731FCB010196F701938323
:100D50008283DB011C92F901CF01DF91CF911F91BA
:100D60000F91FF90EF900895FC012581222339F027
:100D7000F8E02F0290011124820F931F089590E054
:100D800080E00895FC0101900020E9F73197AF0160
:100D9000481B590BBC0183EF92E00C94DD028F924B
:100DA0009F92AF92BF920F931F93CF93DF93CDB7D4
:100DB000DEB7A1970FB6F894DEBF0FBECDBF19A264
:100DC000423008F44AE08E010F5D1F4F842E912CB3
:100DD000B12CA12CA50194010E946615E62FB90142
:100DE000CA01EA30F4F4E05DD801EE938D01232BC3
:100DF000242B252B79F790E080E0109719F0CD0196
:100E00000E94C206A1960FB6F894DEBF0FBECDBFFA
:100E1000DF91CF911F910F91BF90AF909F908F90D6
:100E20000895E95CE1CFFB0101900020E9F73197DB
:100E3000AF01461B570B0C943A041F93CF93DF93DB
:100E4000EEE1F2E01281112379F0329621816213F2
:100E5000F9CFEC016CE50E942504612FCE01DF91F2
:100E6000CF911F910C9425046111F9CF6FE272E0CC
:100E7000DF91CF911F910C9413072F923F924F92C5
:100E80005F926F927F928F929F92AF92BF92CF921A
:100E9000DF92EF92FF920F931F93CF93DF93CDB723
:100EA000DEB76C970FB6F894DEBF0FBECDBF8C01D6
:100EB0001B01DC0114968C9114978F77863009F40E
:100EC00092C268F58230A0F11296ED90FC901397D3
:100ED000CC901196DC90843008F056C2A701B60180
:100EE000C1010E943A04F101828193816C960FB690
:100EF000F894DEBF0FBECDBFDF91CF911F910F9150
:100F0000FF90EF90DF90CF90BF90AF909F908F9029
:100F10007F906F905F904F903F902F9008958C300E
:100F200069F160F4883009F459C28A3009F43FC28B
:100F300066E372E0C1010E941307E5C1803209F443
:100F4000ECC18034A9F76BE5C1010E942504F801CA
:100F5000008111810115110509F4DAC1B101C8013F
:100F60000E943D07C8010E94B4068C01892B09F438
:100F7000CFC16CE2C1010E942504ECCFF801C08012
:100F8000D180E280F380A7019601C701B6010E94DB
:100F900018148111CDCF20E030E0A901C701B601BE
:100FA0000E941814882379F0A7019601C701B601A1
:100FB0000E94BB159B01AC01C701B6010E94181429
:100FC000882309F4B5CF20E030E0A901C701B601BC
:100FD0000E94181487FF08C06DE2C1010E94250419
:100FE000F7FAF094F7F8F09420E836E948E15BE48A
:100FF000C701B6010E945D1687FD81C074E1A72E6E
:10100000B12C00E210E0188E1F8AF501E25FFC4F60
:101010002591359145915491C701B6010E945D1605
:1010200087FD13C0F501EA5DFC4F2591359145918F
:101030005491C701B6010E947E146B017C012F8977
:10104000388D200F311F388F2F8B1595079534E081
:10105000A31AB1088CEFA8168FEFB806B1F6552485
:101060005A9420E030E0A901C701B6010E945D1644
:1010700018160CF04BC02CEA35EC47E257E3C701D9
:10108000B6010E94181418160CF440C0A52DB4E047
:10109000AB02C0011124B12CA12CFC01EA52FE4F7D
:1010A0003F019C01225F3C4F49013FEF531671F114
:1010B000F301EA0DFB1D2591359145915491C7012E
:1010C000B6010E94181487FF13C0F401EA0DFB1D3E
:1010D0002591359145915491C701B6010E947E1426
:1010E0006B017C018F89988D801B910B988F8F8B62
:1010F000159507955A9494E0A91AB108D6CF00E245
:1011000010E055E0552E188E1F8AABCFC701B601EF
:101110000E942E164B015C012B013C0106E080E48D
:1011200092E4AFE0B0E0898F9A8FAB8FBC8F102F25
:1011300001509AE04916510461047104C8F0698DA8
:101140007A8D8B8D9C8D2AE030E040E050E00E944B
:101150006615298F3A8F4B8F5C8FC301B2012AE04D
:1011600030E040E050E00E94661529013A01DFCFEF
:10117000C501B4010E941D149B01AC01C701B60159
:101180000E94BA156B017C01698D7A8D8B8D9C8DC7
:101190000E941D149B01AC01C701B6010E947E1480
:1011A0002B013C010E942E166B017C010E941D1434
:1011B0009B01AC01C301B2010E94BA159B01AC01B5
:1011C0000E94BB150E942E16C60ED71EE81EF91EE1
:1011D000898D9A8DAB8DBC8DC816D906EA06FB06A3
:1011E000D8F09FEF891A990AA90AB90AAF89B88D70
:1011F000AB2B39F1BAE08B169104A104B10408F1CC
:10120000EF89F88D3196F88FEF8BC12CD12C7601B8
:10121000812C912C540183942AE0422E512C612C74
:10122000712CC701B601A30192010E946615672BBC
:10123000682B692B51F4111644F469017A0111509D
:10124000F0CFC12CD12C7601E7CFB501A401C101AB
:101250000E944F04112371F14E01F1E18F0E911C98
:10126000012F54019AE0492E512C612C712C015010
:1012700068F0C701B601A30192010E946615605D86
:10128000D4016E934D0169017A01F1CF812F90E075
:10129000BC0160957095F501E81BF90B31978EE262
:1012A000808344275527461B570B6A0D7B1DC101C0
:1012B0000E943A04EF89F88DEF2B29F165E6C10110
:1012C0000E9425040F89188D17FF07C06DE2C10128
:1012D0000E942504119501951109FE0177969F0141
:1012E0008AE0E82EF12CC801B7010E949715805DB5
:1012F00082938B01672BB9F7A9014E1B5F0BBF01CE
:10130000C1010E943A04D10112968D919C91EECDBB
:101310006DE5C1010E942504F6CF6BE7C1010E9473
:101320002504F801008111810115110559F1D80139
:101330001696CC9016971796DC9062E2C1010E9437
:1013400025047601F70161917F01662321F0C10137
:101350000E941D07F7CF62E2C1010E9425046AE3E3
:10136000C1010E942504B101C8010E943D07C801C6
:101370000E94B4068C01892B29F06CE2C1010E9405
:101380002504D2CF6DE7C5CF62E2C1010E942504DA
:101390008601E00EF11EE016F10639F0F8016191C8
:1013A0008F01C1010E941D07F6CF62E2B2CFCD903E
:1013B000DD90ED90FC90B701A601F7FE0BC06DE249
:1013C000C1010E94250444275527BA014C195D0923
:1013D0006E097F09C1010E944F0485CD4D915D9139
:1013E0006D917C91F7CF8C916BE372E0811102C01B
:1013F00060E472E0C1010E94130775CD0F931F9343
:10140000CF93DF93D0E0C0E06115710591F08B01BF
:10141000FC01C081D181209761F06E817F81C8017C
:101420000E94F716892B29F0CE010E94B406EC0128
:10143000F2CFCE01DF91CF911F910F9108954F927E
:101440005F926F927F92BF92CF92DF92EF92FF9264
:101450000F931F93CF93DF93EC018B01E42E0E9437
:101460001405F82E811110C0F12C8F2DDF91CF9132
:101470001F910F91FF90EF90DF90CF90BF907F90E2
:101480006F905F904F900895CE010E94B304873211
:1014900009F42BC10CF5823209F427C1CE010E9458
:1014A000B304B82E6E01FFE0CF0ED11CE12C360143
:1014B0008B2D0E949B04882309F443C12FE3E2167D
:1014C00009F43FC11C86E394F601B1926F01CE018D
:1014D0000E94B304B82EECCF8B3509F44AC08B3789
:1014E000E9F6F80184818078806284831182108219
:1014F00013821282EE2009F447C01C86CE010E949E
:101500001405882309F4B0CF6DE7CE010E940305CE
:10151000D82E8111AACFCC24C394EA94E881F98112
:10152000828193819B838A83848195812281338107
:10153000821B930B9F838E831D821C82892B09F44F
:10154000C086CE010E94B304873209F45DC08232A6
:1015500009F45AC0CE010E94B304F82E0E949B04E5
:10156000811159C0C15BDF4F83E090E0998388838C
:1015700050C0F80184818078806484831182108255
:1015800013821282E11007C0C15BDF4F85E090E05B
:101590009983888369CF1C86CE010E941405882315
:1015A00009F462CF6DE5CE010E94030581115DCF84
:1015B000EA946D857E85C8010E944206009729F451
:1015C000C15BDF4F84E090E0E3CF4E2DBC01CE0144
:1015D0000E941F0A882309F447CFCE010E941405F8
:1015E000882309F441CF6DE5CE010E9403058111E6
:1015F0003CCF6CE2CE010E9403058111DACFC15BC2
:10160000DF4F83E090E0C4CFCE010E9454058111EA
:1016100019C0FD2C2ACF1C866F2DCE010E943A05E1
:10162000CE010E94B304F82E0E949B048111F3CFD7
:10163000E881F9818085882329F0C15BDF4F84E050
:1016400090E094CFCE010E941405882311F36AE341
:10165000CE010E940305882309F484CFEA81FB812F
:101660008C819D81E80FF91F10826C807D806A81DA
:101670007B81C8010E94FE09BC01892BA1F4B30142
:10168000888199810E9477063C016D857E85C8011D
:101690000E944206FC01892B81F284818068848348
:1016A00077826682BF014E2DCE010E941F0A8823D9
:1016B00009F4AFCFCE010E941405882309F4A9CF05
:1016C0006DE7CE010E94030581110DC06CE2CE01D1
:1016D0000E940305882309F445CFCE010E9414051A
:1016E00081111CCF96CFD82E94CFE881F9818281C9
:1016F00093819B838A838481958122813381821B9C
:10170000930B9F838E831D821C82892B11F481E0B1
:101710008087CE010E945405F82E882309F4A4CEB8
:10172000CC80DD80B601888199810E947706F8011E
:10173000248120782560248391838083D382C28290
:1017400094CEFE01EE0DF11D17868F85843781F44E
:10175000F801848180788660848381E08083F4E06E
:10176000EF1609F482CEC15BDF4F82E090E010CF2C
:10177000863641F4F8018481807886608483108203
:10178000F5E0EECF8E3621F424E0E212ECCF6DCE00
:101790008B32D9F1F3018D32D1F5FE017096BF2C59
:1017A000808190ED980F9A3018F08E3209F027CF93
:1017B0006F0160E070E0CB01F6012191A0ED4A2EAF
:1017C000420E39E0341528F16A3949E97407840773
:1017D00049E1940740F5AAE0B0E09B01AC010E940A
:1017E0005B15512C712C612CA30192012095309531
:1017F000409550952617370748075907A0F0640D04
:10180000751D861D971D6F01D7CFFE017096B12CF7
:10181000C7CF211108C0BB2071F16130710581056E
:1018200050E89507A0F0E12CEAE04E2E512C612CF7
:10183000712C61157105F0E88F07910530F1A30156
:1018400092010E946615CA01B901E394F2CFF80132
:10185000248120782A6024839B01AC018827992762
:10186000DC01821B930BA40BB50B80839183A283B5
:10187000B383FB2CFACDF8012481207828602483DF
:101880006083718382839383F0CDD601F601219129
:101890006F0130ED320F3A3010F4E394F6CF2E3270
:1018A000F1F4FD013196DF0131962C9150EDD52EEA
:1018B000D20E29E02D1598F06C3C3CEC73073CE00F
:1018C0008307910580F7AAE0B0E09B01AC010E947C
:1018D0005B156D0D711D811D911DEA94E4CF2C9156
:1018E0002F7D253409F08CC011962C9111972D3243
:1018F000D9F512967F2CFD0130E020E0CE2C0E2C85
:10190000000CDD084AE0542EDF01619040ED460DE9
:101910004A3008F043C0529EA001539E500D11243E
:10192000262D660C330B20533109240F351FA601D9
:10193000420F531F473251053CF3F8018481772051
:10194000D1F040E050E060E070E8B11003C040E04A
:1019500050E0BA0180788C60F80184834083518321
:1019600062837383F72C81CD2B3219F01196712C81
:10197000C2CF1296FCCF40E050E060E87FEFB1109C
:1019800004C040E050E060E87FE780788C60F801B8
:101990008483408351836283738367CD772019F0FA
:1019A0003195219531094C91411129CEE901CE0D96
:1019B000D11DE7FCDA950E941D141C161D061CF5AE
:1019C000E12CC0FF0CC024E0E29EF0011124E25F94
:1019D000FC4F25913591459154910E947E14D595E7
:1019E000C795E394209769F7B1109058F8012481C6
:1019F00020782C602483608371838283938335CD28
:101A000030E020E0D0CFD195C195D109E12C2097CD
:101A100059F3C0FF0CC044E0E49EF0011124EA5DDC
:101A2000FC4F25913591459154910E947E14D59596
:101A3000C795E394ECCFEF92FF920F931F93CF9350
:101A4000DF93EC018C81982F9F7739F48078806246
:101A50008C83198218821B821A828C8185FF1DC09B
:101A600061157105D1F07A018B01CE010E94FE094A
:101A7000009761F4B701CE010E944206009731F051
:101A8000FC0124812F77248317830683DF91CF9174
:101A90001F910F91FF90EF90089590E080E0F6CFB6
:101AA000CF92DF92EF92FF920F931F93CF93DF932A
:101AB000CDB7DEB7C650D2400FB6F894DEBF0FBE2A
:101AC000CDBFCE010F969A8389839C838B838E0131
:101AD0000D5F1D4F1E830D8318870F8319861E8689
:101AE0008FB7F894C090EF02D090F002E090F1022E
:101AF000F090F2028FBFAE014F5F5F4F66E472E07D
:101B0000CE010A960E941B0DFC01892B41F09481A5
:101B1000907898609483C082D182E282F38286E3D7
:101B20000E94C2027C01AE014F5F5F4F6BE472E026
:101B3000CE010A960E941B0DBC01C7010E9414042D
:101B40008DE10E943A027C01AE014F5F5F4F6FE46E
:101B500072E0CE010A960E941B0DBC01C7010E94D3
:101B600014048FE10E943A027C01AE014F5F5F4F87
:101B700067E572E0CE010A960E941B0DBC01C70109
:101B80000E94140483E20E943A027C01AE014F5F7E
:101B90005F4F6FE572E0CE010A960E941B0DBC01FB
:101BA000C7010E94140481E20E943A027C01AE0146
:101BB0004F5F5F4F67E672E0CE010A960E941B0DF1
:101BC000BC01C7010E94140487E30E94C2027C0189
:101BD000AE014F5F5F4F6FE672E0CE010A960E9442
:101BE0001B0DBC01C7010E94140488E30E94C202BD
:101BF0007C01AE014F5F5F4F64E772E0CE010A9651
:101C00000E941B0DBC01C7010E94140489E30E94BD
:101C1000C2027C01AE014F5F5F4F69E772E0CE0107
:101C20000A960E941B0DBC01C7010E94140483EF99
:101C300092E0F8019183808313821282B801CE0171
:101C40000A960E943D078EE792E00E94C20610921B
:101C5000E402CA5FDD4F0FB6F894DEBF0FBECDBF02
:101C6000DF91CF911F910F91FF90EF90DF90CF9078
:101C700008950F931F93CF93DF93CDB7DEB7C3566D
:101C8000D2400FB6F894DEBF0FBECDBFCE010F9687
:101C90009A8389839C838B8383E092E08C0F9D1FC2
:101CA0009E838D8398878F8319861E8682509240EB
:101CB000C45ADD4F99838883CC55D24028E0FE0179
:101CC000E45AFD4FDE01AC5ABD4F01900D922A95AA
:101CD000E1F728E0FE01EC5AFD4FDE01AD5FBD4F9C
:101CE00001900D922A95E1F7C55FDD4F1882CB5028
:101CF000D24023EF32E0C45FDD4F39832883CC50DC
:101D0000D240C15FDD4F1882CF50D240C05FDD4F5F
:101D100099838883C051D240CE5ADD4F19821882F0
:101D2000C255D2404AE0BE01665F7F4F8E5F9D4F35
:101D30000E941F0ACE5ADD4F08811981C255D24038
:101D40000115110501F5C25FDD4F8881CE50D240EB
:101D50008823C9F08E8583FF16C01092E50203E048
:101D600010E081E892E00E94C206000F111FF80106
:101D7000E050FE4F808191810097C9F58EE792E097
:101D80000E94C20608C01092E5020115110549F72C
:101D90008E8585FD0CC0CD59DD4F0FB6F894DEBFA2
:101DA0000FBECDBFDF91CF911F910F91089568E9CC
:101DB00072E0CE010A960E94FE09009761F3FC01D1
:101DC00084818F7741F368E972E0CE010A960E9420
:101DD000FE09FC01892B71F194819F77983009F1FC
:101DE00048F4992339F19630B1F011E015C00E9402
:101DF000C206C4CF9A30A9F09C30B9F711E020E0B8
:101E000030E0A90160817181828193810E94181460
:101E1000811102C00FC01081612F83E30E94630211
:101E2000BACF11E080819181A281B381892B8A2B65
:101E30008B2B91F710E0F0CF1F920F920FB60F92FD
:101E400011242F933F938F939F93AF93BF938091D0
:101E5000EF029091F002A091F102B091F202309164
:101E6000EE0223E0230F2D3758F50196A11DB11D79
:101E70002093EE028093EF029093F002A093F10280
:101E8000B093F2028091EA029091EB02A091EC02F1
:101E9000B091ED020196A11DB11D8093EA029093CD
:101EA000EB02A093EC02B093ED02BF91AF919F9132
:101EB0008F913F912F910F900FBE0F901F9018950B
:101EC00026E8230F0296A11DB11DD2CF1F920F92BB
:101ED0000FB60F9211240BB60F922F933F934F938F
:101EE0005F936F937F938F939F93AF93BF93EF9382
:101EF000FF9383EF92E00E945103FF91EF91BF9116
:101F0000AF919F918F917F916F915F914F913F9191
:101F10002F910F900BBE0F900FBE0F901F90189532
:101F20001F920F920FB60F9211240BB60F922F93A0
:101F30008F939F93EF93FF93E0910303F09104033A
:101F40008081E0910903F0910A0382FD1DC0908118
:101F500080910C038F5F8F7320910D03821741F0E6
:101F6000E0910C03F0E0ED50FD4F958F80930C0352
:101F7000FF91EF919F918F912F910F900BBE0F903A
:101F80000FBE0F901F9018958081F2CF789484B582
:101F9000826084BD84B5816084BD85B5826085BD65
:101FA00085B5816085BD80916E00816080936E00F3
:101FB00010928100809181008260809381008091E5
:101FC0008100816080938100809180008160809396
:101FD00080008091B10084608093B1008091B00056
:101FE00081608093B0008091910082608093910025
:101FF0008091910081608093910080919000816038
:10200000809390008091A10082608093A1008091D4
:10201000A10081608093A1008091A00081608093E5
:10202000A000809121018260809321018091210193
:102030008160809321018091200181608093200143
:1020400080917A00846080937A0080917A00826027
:1020500080937A0080917A00816080937A008091E9
:102060007A00806880937A001092C100E0910303A7
:10207000F091040382E08083E091FF02F09100037D
:102080001082E0910103F09102038FEC80831092A3
:102090000B03E0910703F091080386E08083E09151
:1020A0000503F0910603808180618083E091050340
:1020B000F0910603808188608083E0910503F091B0
:1020C0000603808180688083E0910503F091060318
:1020D00080818F7D808361E08CE00E94910261E0CD
:1020E0008BE00E94910261E08AE00E94910261E02F
:1020F00089E00E94910261E088E00E94910261E023
:1021000087E00E94910261E086E00E94910261E016
:1021100085E00E94910261E084E00E94910261E00A
:1021200083E00E94910261E083E30E94910261E0FA
:1021300081E30E94910261E08FE20E94910261E0DE
:102140008DE20E94910260E085E40E94910260E0CD
:1021500084E40E94910260E083E40E94910261E0C5
:102160008DE00E94910260E08DE10E94910260E0AA
:102170008FE10E94910260E083E20E94910260E0A0
:1021800081E20E94910261E08DE10E94630261E0C0
:102190008FE10E94630261E083E20E94630261E0DA
:1021A00081E20E94630260E087E10E94910260E0A8
:1021B00089E10E94910261E087E10E94630261E08F
:1021C00089E10E94630260E081E40E94910260E084
:1021D00080E40E94910260E085E30E949102C5EDD7
:1021E000D2E085E40E94C20284E40E94C20283E439
:1021F0000E94C2022FE632E143E85AE36091E60210
:102200007091E7028091E8029091E9020E94BB156B
:102210006093E6027093E7028093E8029093E902EC
:102220000E94621620E030EC4FE754E40E947E14D6
:102230006B017C014B015C01AC019B010E946A16A1
:10224000882309F44EC08CE992E00E94C2068EE712
:1022500092E00E94C2066091E6027091E7028091CE
:10226000E8029091E9020E94621620E030EC4FE70C
:1022700054E40E947E140E9427164B017B0161E00A
:102280008DE00E9491028114910409F0BEC060E0CB
:102290008DE00E9463028FE30E94C2022AE030E0D8
:1022A000DC010E94B31528EE33E040E050E00E94CC
:1022B0003C152B3031054105510508F091C1F9015C
:1022C0008827EA59FE4E8F4F0C94AB15C812231382
:1022D00025132B133513431355136B138513A313B6
:1022E000C51326013701E89477F82FEF3FEF4FE74A
:1022F0005FE7C301B2010E946A1681110DC02FEF82
:102300003FEF4FE75FE7C301B2010E9418141816B0
:102310001CF480EA92E099CF2FEF3FEF4FE75FE4A4
:10232000C701B6010E945D1618161CF484EA92E0FB
:102330008CCF2FEF3FEF4FE75FECC701B6010E9454
:10234000181487FDF3CF20E030E0A901C701B601E2
:102350000E94181487FF0BC06DE283EF92E00E9489
:10236000730346015701B7FAB094B7F8B0942AE066
:1023700037ED43EA5BE3C501B4010E94BB154B0195
:102380005C010E942E166B017C010E941D149B01B2
:10239000AC01C501B4010E94BA154B015C014AE0D1
:1023A000C701B6010E94CF066EE283EF92E00E9461
:1023B000730320E030E040E251E4C501B4010E9423
:1023C0007E144B015C010E942E166B01F12CE12C56
:1023D0004AE0C701B6010E94CF06C701B6010E94BC
:1023E0001D149B01AC01C501B4010E94BA1520E087
:1023F00030E040E251E40E947E140E942E1690E0EC
:1024000080E04AE00E94CF0622CF8FEF8816910429
:1024100011F461E03DCFFE018491EFEFE80FE2316E
:1024200008F0B0C0F0E08827E75EFD4E8F4F0C94B7
:10243000AB152B12301235123F124912C212531231
:102440005B1263126D127712811290129A12C212ED
:10245000A412AE12B81284B5806884BD87BC1BCFAD
:1024600084B5806284BD88BC16CF8091800080686E
:102470008093800090928900809288000CCF809198
:10248000800080628093800090928B0080928A000E
:1024900002CF8091800088608093800090928D00B0
:1024A00080928C00F8CE8091B00080688093B0005C
:1024B0008092B300F0CE8091B00080628093B00033
:1024C0008092B400E8CE8091900080688093900064
:1024D0009092990080929800DECE80919000806268
:1024E0008093900090929B0080929A00D4CE80912D
:1024F000900088608093900090929D0080929C0054
:10250000CACE8091A00080688093A0008091A00036
:102510008F7B8093A0009092A9008092A800BBCEF0
:102520008091A00080628093A0009092AB00809286
:10253000AA00B1CE8091A00088608093A000909204
:10254000AD008092AC00A7CE80912001806880937E
:10255000200190922901809228019DCE8091200136
:1025600080628093200190922B0180922A0193CE69
:102570008091200188608093200190922D018092AB
:102580002C0189CEF0E8EF16F1040CF042CF7FCE9B
:1025900061E08CE00E94630261E08BE00E946302D4
:1025A00061E08AE00E94630261E089E00E946302C8
:1025B00061E088E00E94630261E087E00E946302BC
:1025C00061E086E00E94630261E085E00E946302B0
:1025D00061E084E00E94630261E083E00E946302A4
:1025E0008DE10E943A0260E0892B09F061E08FE200
:1025F0000E9463028FE10E943A0260E0892B09F099
:1026000061E081E30E94630283E20E943A0260E09B
:10261000892B09F061E083E30E94630281E20E945A
:102620003A0260E0892B09F061E08DE20E946302CA
:102630008091E502882321F00E94390E0E94500DFE
:102640000E94E403CECD60E0A4CF60E08CE00E9465
:10265000630260E0A2CF60E08CE00E94630260E071
:102660008BE00E94630260E09CCF60E08CE00E94FF
:10267000630260E08BE00E94630260E08AE00E94F7
:10268000630260E092CF60E08CE00E94630260E051
:102690008BE00E94630260E08AE00E94630260E0D7
:1026A00089E00E94630260E084CF60E08CE00E94D9
:1026B000630260E08BE00E94630260E08AE00E94B7
:1026C000630260E089E00E94630260E088E00E94AB
:1026D000630260E072CF60E08CE00E94630260E021
:1026E0008BE00E94630260E08AE00E94630260E087
:1026F00089E00E94630260E088E00E94630260E07B
:1027000087E00E94630260E05CCF60E08CE00E94A2
:10271000630260E08BE00E94630260E08AE00E9456
:10272000630260E089E00E94630260E088E00E944A
:10273000630260E087E00E94630260E086E00E943E
:10274000630260E042CF60E08CE00E94630260E0E0
:102750008BE00E94630260E08AE00E94630260E016
:1027600089E00E94630260E088E00E94630260E00A
:1027700087E00E94630260E086E00E94630260E0FE
:1027800085E00E94630260E024CF60E08CE00E945C
:10279000630260E08BE00E94630260E08AE00E94D6
:1027A000630260E089E00E94630260E088E00E94CA
:1027B000630260E087E00E94630260E086E00E94BE
:1027C000630260E085E00E94630260E084E00E94B2
:1027D000630260E002CFE3EFF2E01382128288EE40
:1027E00093E0A0E0B0E084839583A683B78380E183
:1027F00092E09183808385EC90E09587848784ECD8
:1028000090E09787868780EC90E0918B808B81ECBD
:1028100090E0938B828B82EC90E0958B848B86EC9E
:1028200090E0978B868B118E128E138E148E0895E6
:102830000E945A1408F481E00895E89409C097FBB7
:102840003EF490958095709561957F4F8F4F9F4F87
:102850009923A9F0F92F96E9BB279395F6958795CB
:1028600077956795B795F111F8CFFAF4BB0F11F48E
:1028700060FF1BC06F5F7F4F8F4F9F4F16C0882335
:1028800011F096E911C0772321F09EE8872F762F6B
:1028900005C0662371F096E8862F70E060E02AF0AC
:1028A0009A95660F771F881FDAF7880F9695879598
:1028B00097F90895990F0008550FAA0BE0E8FEEF6D
:1028C00016161706E807F907C0F012161306E407F4
:1028D000F50798F0621B730B840B950B39F40A26ED
:1028E00061F0232B242B252B21F408950A2609F4CB
:1028F000A140A6958FEF811D811D08950E9491141E
:102900000C9402150E94F41438F00E94FB1420F07D
:10291000952311F00C94EB140C94F11411240C94E5
:1029200036150E94131570F3959FC1F3950F50E073
:10293000551F629FF001729FBB27F00DB11D639F71
:10294000AA27F00DB11DAA1F649F6627B00DA11D17
:10295000661F829F2227B00DA11D621F739FB00DBD
:10296000A11D621F839FA00D611D221F749F33272D
:10297000A00D611D231F849F600D211D822F762FC6
:102980006A2F11249F5750409AF0F1F088234AF0A3
:10299000EE0FFF1FBB1F661F771F881F915050400F
:1029A000A9F79E3F510580F00C94EB140C9436155A
:1029B0005F3FE4F3983ED4F3869577956795B79596
:1029C000F795E7959F5FC1F7FE2B880F911D9695B0
:1029D000879597F9089597F99F6780E870E060E020
:1029E00008959FEF80EC089500240A9416161706A8
:1029F00018060906089500240A94121613061406F0
:102A000005060895092E0394000C11F4882352F052
:102A1000BB0F40F4BF2B11F460FF04C06F5F7F4F0A
:102A20008F4F9F4F089557FD9058440F551F59F0F1
:102A30005F3F71F04795880F97FB991F61F09F3FAB
:102A400079F087950895121613061406551FF2CFD4
:102A50004695F1DF08C0161617061806991FF1CF24
:102A600086957105610508940895E894BB2766274B
:102A70007727CB0197F90895052E97FB1EF4009454
:102A80000E94531557FD07D00E94661507FC03D01E
:102A90004EF40C94531550954095309521953F4F29
:102AA0004F4F5F4F089590958095709561957F4F3A
:102AB0008F4F9F4F08950E948815A59F900DB49F3A
:102AC000900DA49F800D911D11240895A1E21A2E4E
:102AD000AA1BBB1BFD010DC0AA1FBB1FEE1FFF1FC2
:102AE000A217B307E407F50720F0A21BB30BE40B12
:102AF000F50B661F771F881F991F1A9469F7609559
:102B00007095809590959B01AC01BD01CF01089512
:102B1000A29FB001B39FC001A39F700D811D11241E
:102B2000911DB29F700D811D1124911D0895AA1B46
:102B3000BB1B51E107C0AA1FBB1FA617B70710F0A8
:102B4000A61BB70B881F991F5A95A9F780959095DA
:102B5000BC01CD010895EE0FFF1F881F8BBF0790AA
:102B6000F691E02D19940E948815B7FF0895821BF5
:102B7000930B08955058BB27AA270E94D2150C9496
:102B800002150E94F41438F00E94FB1420F039F46E
:102B90009F3F19F426F40C94F1140EF4E095E7FB32
:102BA0000C94EB14E92F0E94131558F3BA1762071F
:102BB00073078407950720F079F4A6F50C94351572
:102BC0000EF4E0950B2EBA2FA02D0B01B901900148
:102BD0000C01CA01A0011124FF27591B99F0593F8C
:102BE00050F4503E68F11A16F040A22F232F342FD4
:102BF0004427585FF3CF469537952795A795F04022
:102C00005395C9F77EF41F16BA0B620B730B840B36
:102C1000BAF09150A1F0FF0FBB1F661F771F881FEE
:102C2000C2F70EC0BA0F621F731F841F48F4879546
:102C300077956795B795F7959E3F08F0B0CF939538
:102C4000880F08F09927EE0F9795879508950E94B1
:102C50002E166894B1110C94361508950E941B1518
:102C600088F09F5798F0B92F9927B751B0F0E1F04D
:102C7000660F771F881F991F1AF0BA95C9F714C0FD
:102C8000B13091F00E943515B1E008950C943515DE
:102C9000672F782F8827B85F39F0B93FCCF3869536
:102CA00077956795B395D9F73EF490958095709593
:102CB00061957F4F8F4F9F4F08950E945A1408F4DB
:102CC0008FEF08959F930E9471160F9007FCEE5F9F
:102CD0000C949A160E945A14880B990B08950C9420
:102CE000F1140E941B15D8F3E894E0E0BB279F572E
:102CF000F0F02AED3FE049EC06C0EE0FBB0F661F77
:102D0000771F881F28F0B23A62077307840728F0FC
:102D1000B25A620B730B840BE3959A9572F7803865
:102D200030F49A95BB0F661F771F881FD2F7904823
:102D30000C94B016EF93E0FF07C0A2EA2AED3FE043
:102D400049EC5FEB0E94D2150E9402150F9003948C
:102D500001FC9058E4EEF0E00C94BC169F3F31F07B
:102D6000915020F4879577956795B795880F911DB9
:102D70009695879597F908959F938F937F936F9377
:102D8000FF93EF939B01AC010E947E14EF91FF91A2
:102D90000E94D0162F913F914F915F910C947E1419
:102DA000DF93CF931F930F93FF92EF92DF927B01FC
:102DB0008C01689406C0DA2EEF010E949114FE0186
:102DC000E894A5912591359145915591A6F3EF0190
:102DD0000E94D215FE019701A801DA9469F7DF90ED
:102DE000EF90FF900F911F91CF91DF910895FB011C
:102DF000DC018D91019080190110D9F3990B089590
:042E0000F894FFCF74
:102E0400A802AB02B602C602D302DC020000000034
:102E14007303DD020A03C0033B0319032D032F2FA1
:102E240022225C5C6208660C6E0A720D7409005CF6
:102E34007530303030006E756C6C007472756500DE
:102E440066616C73650074696D6500706F7400620F
:102E54006F75746F6E3100626F75746F6E320062DD
:102E64006F75746F6E3300626F75746F6E340041EA
:102E74006363580041636359004163635A000D0A58
:102E840000646573657269616C697A6528292066D6
:102E940061696C65643A20006C6564006E616E0063
:102EA400696E66006F7666004F6B00456D707479CD
:102EB400496E70757400496E636F6D706C657465EE
:102EC400496E70757400496E76616C6964496E7000
:102ED4007574004E6F4D656D6F727900546F6F4459
:042EE40065657000B0
:00000001FF
